{
  "contractName": "BridgeERC721_v3",
  "abi": [
    {
      "inputs": [
        {
          "internalType": "address[]",
          "name": "_super_admins",
          "type": "address[]"
        }
      ],
      "stateMutability": "nonpayable",
      "type": "constructor"
    },
    {
      "anonymous": false,
      "inputs": [
        {
          "indexed": true,
          "internalType": "address",
          "name": "from",
          "type": "address"
        },
        {
          "indexed": true,
          "internalType": "address",
          "name": "to",
          "type": "address"
        },
        {
          "indexed": false,
          "internalType": "uint256[]",
          "name": "tokenIds",
          "type": "uint256[]"
        },
        {
          "indexed": false,
          "internalType": "bool",
          "name": "is_lock",
          "type": "bool"
        }
      ],
      "name": "TransactMultiTokens",
      "type": "event"
    },
    {
      "inputs": [
        {
          "internalType": "address",
          "name": "",
          "type": "address"
        },
        {
          "internalType": "address",
          "name": "",
          "type": "address"
        },
        {
          "internalType": "uint256",
          "name": "",
          "type": "uint256"
        },
        {
          "internalType": "bool",
          "name": "",
          "type": "bool"
        }
      ],
      "name": "NumTransact",
      "outputs": [
        {
          "internalType": "uint256",
          "name": "",
          "type": "uint256"
        }
      ],
      "stateMutability": "view",
      "type": "function"
    },
    {
      "inputs": [
        {
          "internalType": "address",
          "name": "",
          "type": "address"
        }
      ],
      "name": "admins",
      "outputs": [
        {
          "internalType": "bool",
          "name": "",
          "type": "bool"
        }
      ],
      "stateMutability": "view",
      "type": "function"
    },
    {
      "inputs": [
        {
          "internalType": "address",
          "name": "",
          "type": "address"
        }
      ],
      "name": "super_admins",
      "outputs": [
        {
          "internalType": "bool",
          "name": "",
          "type": "bool"
        }
      ],
      "stateMutability": "view",
      "type": "function"
    },
    {
      "inputs": [
        {
          "internalType": "bytes4",
          "name": "interfaceId",
          "type": "bytes4"
        }
      ],
      "name": "supportsInterface",
      "outputs": [
        {
          "internalType": "bool",
          "name": "",
          "type": "bool"
        }
      ],
      "stateMutability": "view",
      "type": "function"
    },
    {
      "inputs": [
        {
          "internalType": "address",
          "name": "",
          "type": "address"
        },
        {
          "internalType": "address",
          "name": "",
          "type": "address"
        },
        {
          "internalType": "uint256",
          "name": "",
          "type": "uint256"
        },
        {
          "internalType": "bytes",
          "name": "",
          "type": "bytes"
        }
      ],
      "name": "onERC721Received",
      "outputs": [
        {
          "internalType": "bytes4",
          "name": "",
          "type": "bytes4"
        }
      ],
      "stateMutability": "pure",
      "type": "function"
    },
    {
      "inputs": [
        {
          "internalType": "uint256[]",
          "name": "tokenIds",
          "type": "uint256[]"
        },
        {
          "internalType": "address",
          "name": "from_contract_add",
          "type": "address"
        },
        {
          "internalType": "address",
          "name": "to",
          "type": "address"
        }
      ],
      "name": "lock_multiples",
      "outputs": [],
      "stateMutability": "nonpayable",
      "type": "function"
    },
    {
      "inputs": [
        {
          "internalType": "address",
          "name": "from",
          "type": "address"
        },
        {
          "internalType": "uint256[]",
          "name": "tokenIds",
          "type": "uint256[]"
        },
        {
          "internalType": "string[]",
          "name": "tokenURIs",
          "type": "string[]"
        },
        {
          "internalType": "address",
          "name": "to_contract_add",
          "type": "address"
        },
        {
          "internalType": "bytes[]",
          "name": "signatures",
          "type": "bytes[]"
        }
      ],
      "name": "unlock_multiples",
      "outputs": [],
      "stateMutability": "nonpayable",
      "type": "function"
    }
  ],
  "bytecode": "0x60806040523480156200001157600080fd5b506040516200246338038062002463833981810160405281019062000037919062000327565b60018060003373ffffffffffffffffffffffffffffffffffffffff1673ffffffffffffffffffffffffffffffffffffffff16815260200190815260200160002060006101000a81548160ff02191690831515021790555060005b81518163ffffffff16101562000131576001806000848463ffffffff1681518110620000c257620000c162000378565b5b602002602001015173ffffffffffffffffffffffffffffffffffffffff1673ffffffffffffffffffffffffffffffffffffffff16815260200190815260200160002060006101000a81548160ff02191690831515021790555080806200012890620003e6565b91505062000091565b505062000417565b6000604051905090565b600080fd5b600080fd5b600080fd5b6000601f19601f8301169050919050565b7f4e487b7100000000000000000000000000000000000000000000000000000000600052604160045260246000fd5b6200019d8262000152565b810181811067ffffffffffffffff82111715620001bf57620001be62000163565b5b80604052505050565b6000620001d462000139565b9050620001e2828262000192565b919050565b600067ffffffffffffffff82111562000205576200020462000163565b5b602082029050602081019050919050565b600080fd5b600073ffffffffffffffffffffffffffffffffffffffff82169050919050565b600062000248826200021b565b9050919050565b6200025a816200023b565b81146200026657600080fd5b50565b6000815190506200027a816200024f565b92915050565b6000620002976200029184620001e7565b620001c8565b90508083825260208201905060208402830185811115620002bd57620002bc62000216565b5b835b81811015620002ea5780620002d5888262000269565b845260208401935050602081019050620002bf565b5050509392505050565b600082601f8301126200030c576200030b6200014d565b5b81516200031e84826020860162000280565b91505092915050565b60006020828403121562000340576200033f62000143565b5b600082015167ffffffffffffffff81111562000361576200036062000148565b5b6200036f84828501620002f4565b91505092915050565b7f4e487b7100000000000000000000000000000000000000000000000000000000600052603260045260246000fd5b7f4e487b7100000000000000000000000000000000000000000000000000000000600052601160045260246000fd5b600063ffffffff82169050919050565b6000620003f382620003d6565b915063ffffffff82036200040c576200040b620003a7565b5b600182019050919050565b61203c80620004276000396000f3fe608060405234801561001057600080fd5b506004361061007d5760003560e01c8063849bd6021161005b578063849bd60214610112578063a4e0178b1461012e578063ecaa10b41461014a578063f32aa3ab1461017a5761007d565b806301ffc9a714610082578063150b7a02146100b2578063429b62e5146100e2575b600080fd5b61009c60048036038101906100979190610eda565b6101aa565b6040516100a99190610f22565b60405180910390f35b6100cc60048036038101906100c79190611036565b61028c565b6040516100d991906110cd565b60405180910390f35b6100fc60048036038101906100f791906110e8565b6102a1565b6040516101099190610f22565b60405180910390f35b61012c6004803603810190610127919061157c565b6102c1565b005b6101486004803603810190610143919061164b565b6107fe565b005b610164600480360381019061015f91906110e8565b6109ef565b6040516101719190610f22565b60405180910390f35b610194600480360381019061018f91906116e6565b610a0f565b6040516101a1919061175c565b60405180910390f35b60007f80ac58cd000000000000000000000000000000000000000000000000000000007bffffffffffffffffffffffffffffffffffffffffffffffffffffffff1916827bffffffffffffffffffffffffffffffffffffffffffffffffffffffff1916148061027557507f5b5e139f000000000000000000000000000000000000000000000000000000007bffffffffffffffffffffffffffffffffffffffffffffffffffffffff1916827bffffffffffffffffffffffffffffffffffffffffffffffffffffffff1916145b80610285575061028482610a4e565b5b9050919050565b600063150b7a0260e01b905095945050505050565b60006020528060005260406000206000915054906101000a900460ff1681565b8251845114610305576040517f08c379a00000000000000000000000000000000000000000000000000000000081526004016102fc906117fa565b60405180910390fd5b600082905060005b85518163ffffffff16101561078d576000868263ffffffff16815181106103375761033661181a565b5b602002602001015190506000868363ffffffff168151811061035c5761035b61181a565b5b602002602001015190506000600260008b73ffffffffffffffffffffffffffffffffffffffff1673ffffffffffffffffffffffffffffffffffffffff16815260200190815260200160002060003373ffffffffffffffffffffffffffffffffffffffff1673ffffffffffffffffffffffffffffffffffffffff16815260200190815260200160002060008a8663ffffffff16815181106103ff576103fe61181a565b5b6020026020010151815260200190815260200160002060008015151515815260200190815260200160002054905060008a3385846040516020016104469493929190611909565b604051602081830303815290604052805190602001209050600061048a82898863ffffffff168151811061047d5761047c61181a565b5b6020026020010151610ab8565b905060011515811515146104d3576040517f08c379a00000000000000000000000000000000000000000000000000000000081526004016104ca906119ae565b60405180910390fd5b8673ffffffffffffffffffffffffffffffffffffffff16636352211e866040518263ffffffff1660e01b815260040161050c919061175c565b602060405180830381865afa92505050801561054657506040513d601f19601f8201168201806040525081019061054391906119e3565b60015b6105bc578673ffffffffffffffffffffffffffffffffffffffff166377097fc886866040518363ffffffff1660e01b8152600401610585929190611a87565b600060405180830381600087803b15801561059f57600080fd5b505af11580156105b3573d6000803e3d6000fd5b5050505061062c565b3073ffffffffffffffffffffffffffffffffffffffff168173ffffffffffffffffffffffffffffffffffffffff161461062a576040517f08c379a000000000000000000000000000000000000000000000000000000000815260040161062190611b03565b60405180910390fd5b505b6001600260008e73ffffffffffffffffffffffffffffffffffffffff1673ffffffffffffffffffffffffffffffffffffffff16815260200190815260200160002060003373ffffffffffffffffffffffffffffffffffffffff1673ffffffffffffffffffffffffffffffffffffffff16815260200190815260200160002060008d8963ffffffff16815181106106c5576106c461181a565b5b6020026020010151815260200190815260200160002060008015151515815260200190815260200160002060008282546106ff9190611b52565b925050819055508673ffffffffffffffffffffffffffffffffffffffff166342842e0e3033886040518463ffffffff1660e01b815260040161074393929190611bb7565b600060405180830381600087803b15801561075d57600080fd5b505af1158015610771573d6000803e3d6000fd5b505050505050505050808061078590611bfe565b91505061030d565b503373ffffffffffffffffffffffffffffffffffffffff168673ffffffffffffffffffffffffffffffffffffffff167fa12d371f9689be96a0764c958961b55d182b2b949d7544e7c8e18aae0d7a5e338760006040516107ee929190611ce8565b60405180910390a3505050505050565b600082905060005b8451811015610980576001600260003373ffffffffffffffffffffffffffffffffffffffff1673ffffffffffffffffffffffffffffffffffffffff16815260200190815260200160002060008573ffffffffffffffffffffffffffffffffffffffff1673ffffffffffffffffffffffffffffffffffffffff16815260200190815260200160002060008784815181106108a2576108a161181a565b5b602002602001015181526020019081526020016000206000600115151515815260200190815260200160002060008282546108dd9190611b52565b925050819055508173ffffffffffffffffffffffffffffffffffffffff166342842e0e33308885815181106109155761091461181a565b5b60200260200101516040518463ffffffff1660e01b815260040161093b93929190611bb7565b600060405180830381600087803b15801561095557600080fd5b505af1158015610969573d6000803e3d6000fd5b50505050808061097890611d18565b915050610806565b508173ffffffffffffffffffffffffffffffffffffffff163373ffffffffffffffffffffffffffffffffffffffff167fa12d371f9689be96a0764c958961b55d182b2b949d7544e7c8e18aae0d7a5e338660016040516109e1929190611ce8565b60405180910390a350505050565b60016020528060005260406000206000915054906101000a900460ff1681565b60026020528360005260406000206020528260005260406000206020528160005260406000206020528060005260406000206000935093505050505481565b60007f01ffc9a7000000000000000000000000000000000000000000000000000000007bffffffffffffffffffffffffffffffffffffffffffffffffffffffff1916827bffffffffffffffffffffffffffffffffffffffffffffffffffffffff1916149050919050565b600080610ac484610b7e565b90506000610ad28285610bae565b90506000808273ffffffffffffffffffffffffffffffffffffffff1673ffffffffffffffffffffffffffffffffffffffff16815260200190815260200160002060009054906101000a900460ff1680610b745750600160008273ffffffffffffffffffffffffffffffffffffffff1673ffffffffffffffffffffffffffffffffffffffff16815260200190815260200160002060009054906101000a900460ff165b9250505092915050565b600081604051602001610b919190611dd7565b604051602081830303815290604052805190602001209050919050565b6000806000610bbd8585610bd5565b91509150610bca81610c26565b819250505092915050565b6000806041835103610c165760008060006020860151925060408601519150606086015160001a9050610c0a87828585610d8c565b94509450505050610c1f565b60006002915091505b9250929050565b60006004811115610c3a57610c39611dfd565b5b816004811115610c4d57610c4c611dfd565b5b0315610d895760016004811115610c6757610c66611dfd565b5b816004811115610c7a57610c79611dfd565b5b03610cba576040517f08c379a0000000000000000000000000000000000000000000000000000000008152600401610cb190611e78565b60405180910390fd5b60026004811115610cce57610ccd611dfd565b5b816004811115610ce157610ce0611dfd565b5b03610d21576040517f08c379a0000000000000000000000000000000000000000000000000000000008152600401610d1890611ee4565b60405180910390fd5b60036004811115610d3557610d34611dfd565b5b816004811115610d4857610d47611dfd565b5b03610d88576040517f08c379a0000000000000000000000000000000000000000000000000000000008152600401610d7f90611f76565b60405180910390fd5b5b50565b6000807f7fffffffffffffffffffffffffffffff5d576e7357a4501ddfe92f46681b20a08360001c1115610dc7576000600391509150610e65565b600060018787878760405160008152602001604052604051610dec9493929190611fc1565b6020604051602081039080840390855afa158015610e0e573d6000803e3d6000fd5b505050602060405103519050600073ffffffffffffffffffffffffffffffffffffffff168173ffffffffffffffffffffffffffffffffffffffff1603610e5c57600060019250925050610e65565b80600092509250505b94509492505050565b6000604051905090565b600080fd5b600080fd5b60007fffffffff0000000000000000000000000000000000000000000000000000000082169050919050565b610eb781610e82565b8114610ec257600080fd5b50565b600081359050610ed481610eae565b92915050565b600060208284031215610ef057610eef610e78565b5b6000610efe84828501610ec5565b91505092915050565b60008115159050919050565b610f1c81610f07565b82525050565b6000602082019050610f376000830184610f13565b92915050565b600073ffffffffffffffffffffffffffffffffffffffff82169050919050565b6000610f6882610f3d565b9050919050565b610f7881610f5d565b8114610f8357600080fd5b50565b600081359050610f9581610f6f565b92915050565b6000819050919050565b610fae81610f9b565b8114610fb957600080fd5b50565b600081359050610fcb81610fa5565b92915050565b600080fd5b600080fd5b600080fd5b60008083601f840112610ff657610ff5610fd1565b5b8235905067ffffffffffffffff81111561101357611012610fd6565b5b60208301915083600182028301111561102f5761102e610fdb565b5b9250929050565b60008060008060006080868803121561105257611051610e78565b5b600061106088828901610f86565b955050602061107188828901610f86565b945050604061108288828901610fbc565b935050606086013567ffffffffffffffff8111156110a3576110a2610e7d565b5b6110af88828901610fe0565b92509250509295509295909350565b6110c781610e82565b82525050565b60006020820190506110e260008301846110be565b92915050565b6000602082840312156110fe576110fd610e78565b5b600061110c84828501610f86565b91505092915050565b6000601f19601f8301169050919050565b7f4e487b7100000000000000000000000000000000000000000000000000000000600052604160045260246000fd5b61115e82611115565b810181811067ffffffffffffffff8211171561117d5761117c611126565b5b80604052505050565b6000611190610e6e565b905061119c8282611155565b919050565b600067ffffffffffffffff8211156111bc576111bb611126565b5b602082029050602081019050919050565b60006111e06111db846111a1565b611186565b9050808382526020820190506020840283018581111561120357611202610fdb565b5b835b8181101561122c57806112188882610fbc565b845260208401935050602081019050611205565b5050509392505050565b600082601f83011261124b5761124a610fd1565b5b813561125b8482602086016111cd565b91505092915050565b600067ffffffffffffffff82111561127f5761127e611126565b5b602082029050602081019050919050565b600080fd5b600067ffffffffffffffff8211156112b0576112af611126565b5b6112b982611115565b9050602081019050919050565b82818337600083830152505050565b60006112e86112e384611295565b611186565b90508281526020810184848401111561130457611303611290565b5b61130f8482856112c6565b509392505050565b600082601f83011261132c5761132b610fd1565b5b813561133c8482602086016112d5565b91505092915050565b600061135861135384611264565b611186565b9050808382526020820190506020840283018581111561137b5761137a610fdb565b5b835b818110156113c257803567ffffffffffffffff8111156113a05761139f610fd1565b5b8086016113ad8982611317565b8552602085019450505060208101905061137d565b5050509392505050565b600082601f8301126113e1576113e0610fd1565b5b81356113f1848260208601611345565b91505092915050565b600067ffffffffffffffff82111561141557611414611126565b5b602082029050602081019050919050565b600067ffffffffffffffff82111561144157611440611126565b5b61144a82611115565b9050602081019050919050565b600061146a61146584611426565b611186565b90508281526020810184848401111561148657611485611290565b5b6114918482856112c6565b509392505050565b600082601f8301126114ae576114ad610fd1565b5b81356114be848260208601611457565b91505092915050565b60006114da6114d5846113fa565b611186565b905080838252602082019050602084028301858111156114fd576114fc610fdb565b5b835b8181101561154457803567ffffffffffffffff81111561152257611521610fd1565b5b80860161152f8982611499565b855260208501945050506020810190506114ff565b5050509392505050565b600082601f83011261156357611562610fd1565b5b81356115738482602086016114c7565b91505092915050565b600080600080600060a0868803121561159857611597610e78565b5b60006115a688828901610f86565b955050602086013567ffffffffffffffff8111156115c7576115c6610e7d565b5b6115d388828901611236565b945050604086013567ffffffffffffffff8111156115f4576115f3610e7d565b5b611600888289016113cc565b935050606061161188828901610f86565b925050608086013567ffffffffffffffff81111561163257611631610e7d565b5b61163e8882890161154e565b9150509295509295909350565b60008060006060848603121561166457611663610e78565b5b600084013567ffffffffffffffff81111561168257611681610e7d565b5b61168e86828701611236565b935050602061169f86828701610f86565b92505060406116b086828701610f86565b9150509250925092565b6116c381610f07565b81146116ce57600080fd5b50565b6000813590506116e0816116ba565b92915050565b60008060008060808587031215611700576116ff610e78565b5b600061170e87828801610f86565b945050602061171f87828801610f86565b935050604061173087828801610fbc565b9250506060611741878288016116d1565b91505092959194509250565b61175681610f9b565b82525050565b6000602082019050611771600083018461174d565b92915050565b600082825260208201905092915050565b7f4c656e67746873206f662074686520322061727261797320617265206e6f742060008201527f657175616c000000000000000000000000000000000000000000000000000000602082015250565b60006117e4602583611777565b91506117ef82611788565b604082019050919050565b60006020820190508181036000830152611813816117d7565b9050919050565b7f4e487b7100000000000000000000000000000000000000000000000000000000600052603260045260246000fd5b600081905092915050565b7f756e6c6f636b5f6d756c7469706c657300000000000000000000000000000000600082015250565b600061188a601083611849565b915061189582611854565b601082019050919050565b60008160601b9050919050565b60006118b8826118a0565b9050919050565b60006118ca826118ad565b9050919050565b6118e26118dd82610f5d565b6118bf565b82525050565b6000819050919050565b6119036118fe82610f9b565b6118e8565b82525050565b60006119148261187d565b915061192082876118d1565b60148201915061193082866118d1565b60148201915061194082856118f2565b60208201915061195082846118f2565b60208201915081905095945050505050565b7f4661696c20746f20766572696679000000000000000000000000000000000000600082015250565b6000611998600e83611777565b91506119a382611962565b602082019050919050565b600060208201905081810360008301526119c78161198b565b9050919050565b6000815190506119dd81610f6f565b92915050565b6000602082840312156119f9576119f8610e78565b5b6000611a07848285016119ce565b91505092915050565b600081519050919050565b60005b83811015611a39578082015181840152602081019050611a1e565b83811115611a48576000848401525b50505050565b6000611a5982611a10565b611a638185611777565b9350611a73818560208601611a1b565b611a7c81611115565b840191505092915050565b6000604082019050611a9c600083018561174d565b8181036020830152611aae8184611a4e565b90509392505050565b7f546f6b656e206973206e6f74206c6f636b656400000000000000000000000000600082015250565b6000611aed601383611777565b9150611af882611ab7565b602082019050919050565b60006020820190508181036000830152611b1c81611ae0565b9050919050565b7f4e487b7100000000000000000000000000000000000000000000000000000000600052601160045260246000fd5b6000611b5d82610f9b565b9150611b6883610f9b565b9250827fffffffffffffffffffffffffffffffffffffffffffffffffffffffffffffffff03821115611b9d57611b9c611b23565b5b828201905092915050565b611bb181610f5d565b82525050565b6000606082019050611bcc6000830186611ba8565b611bd96020830185611ba8565b611be6604083018461174d565b949350505050565b600063ffffffff82169050919050565b6000611c0982611bee565b915063ffffffff8203611c1f57611c1e611b23565b5b600182019050919050565b600081519050919050565b600082825260208201905092915050565b6000819050602082019050919050565b611c5f81610f9b565b82525050565b6000611c718383611c56565b60208301905092915050565b6000602082019050919050565b6000611c9582611c2a565b611c9f8185611c35565b9350611caa83611c46565b8060005b83811015611cdb578151611cc28882611c65565b9750611ccd83611c7d565b925050600181019050611cae565b5085935050505092915050565b60006040820190508181036000830152611d028185611c8a565b9050611d116020830184610f13565b9392505050565b6000611d2382610f9b565b91507fffffffffffffffffffffffffffffffffffffffffffffffffffffffffffffffff8203611d5557611d54611b23565b5b600182019050919050565b7f19457468657265756d205369676e6564204d6573736167653a0a333200000000600082015250565b6000611d96601c83611849565b9150611da182611d60565b601c82019050919050565b6000819050919050565b6000819050919050565b611dd1611dcc82611dac565b611db6565b82525050565b6000611de282611d89565b9150611dee8284611dc0565b60208201915081905092915050565b7f4e487b7100000000000000000000000000000000000000000000000000000000600052602160045260246000fd5b7f45434453413a20696e76616c6964207369676e61747572650000000000000000600082015250565b6000611e62601883611777565b9150611e6d82611e2c565b602082019050919050565b60006020820190508181036000830152611e9181611e55565b9050919050565b7f45434453413a20696e76616c6964207369676e6174757265206c656e67746800600082015250565b6000611ece601f83611777565b9150611ed982611e98565b602082019050919050565b60006020820190508181036000830152611efd81611ec1565b9050919050565b7f45434453413a20696e76616c6964207369676e6174757265202773272076616c60008201527f7565000000000000000000000000000000000000000000000000000000000000602082015250565b6000611f60602283611777565b9150611f6b82611f04565b604082019050919050565b60006020820190508181036000830152611f8f81611f53565b9050919050565b611f9f81611dac565b82525050565b600060ff82169050919050565b611fbb81611fa5565b82525050565b6000608082019050611fd66000830187611f96565b611fe36020830186611fb2565b611ff06040830185611f96565b611ffd6060830184611f96565b9594505050505056fea2646970667358221220e69701178a9117293accf8227fe647b224306c642e968114065bcab48189297064736f6c634300080d0033",
  "immutableReferences": {},
  "source": "// SPDX-License-Identifier: MIT \r\n\r\npragma solidity >=0.7.0 <0.9.0;\r\n\r\n\r\nimport \"@openzeppelin/contracts/token/ERC721/IERC721.sol\";\r\nimport \"@openzeppelin/contracts/token/ERC721/IERC721Receiver.sol\";\r\nimport \"@openzeppelin/contracts/token/ERC721/extensions/IERC721Metadata.sol\";\r\nimport \"@openzeppelin/contracts/utils/introspection/ERC165.sol\";\r\n\r\nimport \"@openzeppelin/contracts/utils/cryptography/ECDSA.sol\";\r\n\r\n\r\n//Additional interface for mintable ERC721 token\r\ninterface MintIERC721 is IERC721 {\r\n    function mint(uint256 tokenId, string memory _tokenURI) external;\r\n    function tokenURI(uint256 tokenId) external view returns (string memory);\r\n}\r\n/**\r\n * @title SampleERC721\r\n * @dev Create a sample ERC721 standard token\r\n */\r\ncontract BridgeERC721_v3 is ERC165, IERC721Receiver {\r\n    mapping (address => bool) public admins;\r\n    mapping (address => bool) public super_admins;\r\n    \r\n    //From => to => tokenId => isLock => NumTransact (Uint256)\r\n    mapping (address => mapping(address => mapping(uint256 => mapping(bool => uint256)))) public NumTransact;\r\n\r\n\r\n    event TransactMultiTokens(address indexed from, address indexed to, uint256[] tokenIds, bool is_lock);\r\n\r\n\r\n    constructor(address[] memory _super_admins) {\r\n        super_admins[msg.sender] = true;\r\n        for (uint32 i=0; i < _super_admins.length; i++){\r\n            super_admins[_super_admins[i]] = true;\r\n        }\r\n    }\r\n    \r\n   \r\n\r\n    //IERC165 \r\n    function supportsInterface(bytes4 interfaceId) public view virtual override returns (bool) {\r\n        return\r\n            interfaceId == type(IERC721).interfaceId ||\r\n            interfaceId == type(IERC721Metadata).interfaceId ||\r\n            super.supportsInterface(interfaceId);\r\n    }\r\n\r\n    //The same function is in ERC721Holder (in utils/ folder of OpenZeppelin)\r\n    function onERC721Received (\r\n        address,\r\n        address,\r\n        uint256,\r\n        bytes calldata\r\n    ) external pure override returns (bytes4){\r\n        return IERC721Receiver.onERC721Received.selector;\r\n    }\r\n\r\n    //Verify signature\r\n    function check_signature(bytes32 messageHash, bytes memory signature) internal view returns(bool){\r\n        bytes32 EthHash = ECDSA.toEthSignedMessageHash(messageHash);\r\n        address signer = ECDSA.recover(EthHash, signature);\r\n        return(admins[signer] || super_admins[signer]);\r\n    }\r\n    \r\n    // Need to be called by owner & approved(All)\r\n    function lock_multiples(uint256[] memory tokenIds, address from_contract_add, address to) public {\r\n        MintIERC721 caller_contract = MintIERC721(from_contract_add);\r\n        for (uint i = 0; i < tokenIds.length; i++){\r\n            NumTransact[msg.sender][to][tokenIds[i]][true] += 1;\r\n            caller_contract.safeTransferFrom(msg.sender, address(this), tokenIds[i]);\r\n        }\r\n        emit TransactMultiTokens(msg.sender, to, tokenIds, true);\r\n        \r\n    }\r\n\r\n\r\n\r\n    //Need to be approved by admins & add bridge SC as ERC721 admin\r\n    function unlock_multiples(address from, uint256[] memory tokenIds, string[] memory tokenURIs, address to_contract_add, bytes[] memory signatures) public {\r\n        require(tokenIds.length == tokenURIs.length, \"Lengths of the 2 arrays are not equal\");\r\n        MintIERC721 caller_contract = MintIERC721(to_contract_add);\r\n        for (uint32 i = 0; i < tokenIds.length; i++){\r\n            uint256 tokenId = tokenIds[i];\r\n            string memory _tokenURI = tokenURIs[i];\r\n\r\n            uint256 nonce = NumTransact[from][msg.sender][tokenIds[i]][false];\r\n            bytes32 messageHash = keccak256(abi.encodePacked(\"unlock_multiples\", from, msg.sender, tokenId, nonce));\r\n            bool check = check_signature(messageHash, signatures[i]);\r\n            require(check == true, \"Fail to verify\");\r\n\r\n            try caller_contract.ownerOf(tokenId) returns (address owner) {\r\n                require(owner == address(this), \"Token is not locked\");\r\n            } catch {\r\n                caller_contract.mint(tokenId, _tokenURI);\r\n            }\r\n            NumTransact[from][msg.sender][tokenIds[i]][false] += 1;\r\n            caller_contract.safeTransferFrom(address(this), msg.sender, tokenId);\r\n        }\r\n        emit TransactMultiTokens(from, msg.sender, tokenIds, false);\r\n    }\r\n\r\n}",
  "sourcePath": "C:\\Users\\admin\\OneDrive\\Desktop\\Bridge_reduced_admin\\Blockchain-Bridge-VBC\\truffle-test\\contracts\\BridgeERC721_v3.sol",
  "compiler": {
    "name": "solc",
    "version": "0.8.13+commit.abaa5c0e.Emscripten.clang"
  },
  "schemaVersion": "3.4.11",
  "updatedAt": "2022-12-02T07:49:07.690Z",
  "devdoc": {
    "details": "Create a sample ERC721 standard token",
    "kind": "dev",
    "methods": {
      "supportsInterface(bytes4)": {
        "details": "See {IERC165-supportsInterface}."
      }
    },
    "title": "SampleERC721",
    "version": 1
  },
  "userdoc": {
    "kind": "user",
    "methods": {},
    "version": 1
  }
}