{
  "contractName": "BridgeERC20",
  "abi": [
    {
      "inputs": [
        {
          "internalType": "address[]",
          "name": "_super_admins",
          "type": "address[]"
        }
      ],
      "stateMutability": "payable",
      "type": "constructor"
    },
    {
      "anonymous": false,
      "inputs": [
        {
          "indexed": true,
          "internalType": "address",
          "name": "from",
          "type": "address"
        },
        {
          "indexed": true,
          "internalType": "address",
          "name": "to",
          "type": "address"
        },
        {
          "indexed": true,
          "internalType": "uint256",
          "name": "amount",
          "type": "uint256"
        },
        {
          "indexed": false,
          "internalType": "bool",
          "name": "is_native",
          "type": "bool"
        },
        {
          "indexed": false,
          "internalType": "bool",
          "name": "is_lock",
          "type": "bool"
        }
      ],
      "name": "TransactToken",
      "type": "event"
    },
    {
      "inputs": [
        {
          "internalType": "address",
          "name": "",
          "type": "address"
        },
        {
          "internalType": "address",
          "name": "",
          "type": "address"
        },
        {
          "internalType": "bool",
          "name": "",
          "type": "bool"
        },
        {
          "internalType": "bool",
          "name": "",
          "type": "bool"
        }
      ],
      "name": "TrackingAmounts",
      "outputs": [
        {
          "internalType": "uint256",
          "name": "",
          "type": "uint256"
        }
      ],
      "stateMutability": "view",
      "type": "function"
    },
    {
      "inputs": [
        {
          "internalType": "address",
          "name": "",
          "type": "address"
        }
      ],
      "name": "admins",
      "outputs": [
        {
          "internalType": "bool",
          "name": "",
          "type": "bool"
        }
      ],
      "stateMutability": "view",
      "type": "function"
    },
    {
      "inputs": [
        {
          "internalType": "address",
          "name": "",
          "type": "address"
        }
      ],
      "name": "super_admins",
      "outputs": [
        {
          "internalType": "bool",
          "name": "",
          "type": "bool"
        }
      ],
      "stateMutability": "view",
      "type": "function"
    },
    {
      "stateMutability": "payable",
      "type": "receive"
    },
    {
      "inputs": [
        {
          "internalType": "address",
          "name": "acc",
          "type": "address"
        },
        {
          "internalType": "bool",
          "name": "allow",
          "type": "bool"
        }
      ],
      "name": "change_admins",
      "outputs": [],
      "stateMutability": "nonpayable",
      "type": "function"
    },
    {
      "inputs": [
        {
          "internalType": "bytes32",
          "name": "messageHash",
          "type": "bytes32"
        },
        {
          "internalType": "bytes",
          "name": "signature",
          "type": "bytes"
        }
      ],
      "name": "check_signature",
      "outputs": [
        {
          "internalType": "bool",
          "name": "",
          "type": "bool"
        }
      ],
      "stateMutability": "view",
      "type": "function"
    },
    {
      "inputs": [
        {
          "internalType": "address",
          "name": "to",
          "type": "address"
        }
      ],
      "name": "receive_native",
      "outputs": [],
      "stateMutability": "payable",
      "type": "function"
    },
    {
      "inputs": [
        {
          "internalType": "address",
          "name": "from",
          "type": "address"
        },
        {
          "internalType": "uint256",
          "name": "amount",
          "type": "uint256"
        },
        {
          "internalType": "bytes",
          "name": "signature",
          "type": "bytes"
        }
      ],
      "name": "transfer_native",
      "outputs": [],
      "stateMutability": "payable",
      "type": "function"
    },
    {
      "inputs": [
        {
          "internalType": "address",
          "name": "from_contract_add",
          "type": "address"
        },
        {
          "internalType": "uint256",
          "name": "amount",
          "type": "uint256"
        },
        {
          "internalType": "address",
          "name": "to",
          "type": "address"
        }
      ],
      "name": "lock",
      "outputs": [],
      "stateMutability": "nonpayable",
      "type": "function"
    },
    {
      "inputs": [
        {
          "internalType": "address",
          "name": "from",
          "type": "address"
        },
        {
          "internalType": "address",
          "name": "to_contract_add",
          "type": "address"
        },
        {
          "internalType": "uint256",
          "name": "amount",
          "type": "uint256"
        },
        {
          "internalType": "bytes",
          "name": "signature",
          "type": "bytes"
        }
      ],
      "name": "unlock",
      "outputs": [],
      "stateMutability": "nonpayable",
      "type": "function"
    }
  ],
  "bytecode": "0x6080604052604051620025a8380380620025a88339818101604052810190620000299190620002b6565b60005b8151811015620000c057600180600084848151811062000051576200005062000307565b5b602002602001015173ffffffffffffffffffffffffffffffffffffffff1673ffffffffffffffffffffffffffffffffffffffff16815260200190815260200160002060006101000a81548160ff0219169083151502179055508080620000b7906200036f565b9150506200002c565b5050620003bc565b6000604051905090565b600080fd5b600080fd5b600080fd5b6000601f19601f8301169050919050565b7f4e487b7100000000000000000000000000000000000000000000000000000000600052604160045260246000fd5b6200012c82620000e1565b810181811067ffffffffffffffff821117156200014e576200014d620000f2565b5b80604052505050565b600062000163620000c8565b905062000171828262000121565b919050565b600067ffffffffffffffff821115620001945762000193620000f2565b5b602082029050602081019050919050565b600080fd5b600073ffffffffffffffffffffffffffffffffffffffff82169050919050565b6000620001d782620001aa565b9050919050565b620001e981620001ca565b8114620001f557600080fd5b50565b6000815190506200020981620001de565b92915050565b600062000226620002208462000176565b62000157565b905080838252602082019050602084028301858111156200024c576200024b620001a5565b5b835b81811015620002795780620002648882620001f8565b8452602084019350506020810190506200024e565b5050509392505050565b600082601f8301126200029b576200029a620000dc565b5b8151620002ad8482602086016200020f565b91505092915050565b600060208284031215620002cf57620002ce620000d2565b5b600082015167ffffffffffffffff811115620002f057620002ef620000d7565b5b620002fe8482850162000283565b91505092915050565b7f4e487b7100000000000000000000000000000000000000000000000000000000600052603260045260246000fd5b7f4e487b7100000000000000000000000000000000000000000000000000000000600052601160045260246000fd5b6000819050919050565b60006200037c8262000365565b91507fffffffffffffffffffffffffffffffffffffffffffffffffffffffffffffffff8203620003b157620003b062000336565b5b600182019050919050565b6121dc80620003cc6000396000f3fe60806040526004361061008a5760003560e01c8063bbd2451011610059578063bbd245101461028a578063c96e7749146102b3578063d784c1e0146102f0578063ecaa10b41461030c578063f0ca60fb14610349576101c6565b80633dac6c71146101cb578063429b62e5146101e75780634bbc170a146102245780637f3ec5851461024d576101c6565b366101c6576000341161009c57600080fd5b34600260003373ffffffffffffffffffffffffffffffffffffffff1673ffffffffffffffffffffffffffffffffffffffff16815260200190815260200160002060003373ffffffffffffffffffffffffffffffffffffffff1673ffffffffffffffffffffffffffffffffffffffff168152602001908152602001600020600060011515151581526020019081526020016000206000600115151515815260200190815260200160002060008282546101549190611391565b92505081905550343373ffffffffffffffffffffffffffffffffffffffff163373ffffffffffffffffffffffffffffffffffffffff167f6de982c117e498e9ad35f997f528361698b30e696d4672d3e83fe8fbfe0d5f676001806040516101bc929190611402565b60405180910390a4005b600080fd5b6101e560048036038101906101e0919061160f565b610372565b005b3480156101f357600080fd5b5061020e6004803603810190610209919061167e565b610695565b60405161021b91906116ab565b60405180910390f35b34801561023057600080fd5b5061024b600480360381019061024691906116c6565b6106b5565b005b34801561025957600080fd5b50610274600480360381019061026f919061174f565b6108b4565b60405161028191906116ab565b60405180910390f35b34801561029657600080fd5b506102b160048036038101906102ac91906117d7565b61097a565b005b3480156102bf57600080fd5b506102da60048036038101906102d59190611817565b610a67565b6040516102e7919061188d565b60405180910390f35b61030a6004803603810190610305919061167e565b610aa6565b005b34801561031857600080fd5b50610333600480360381019061032e919061167e565b610c14565b60405161034091906116ab565b60405180910390f35b34801561035557600080fd5b50610370600480360381019061036b91906118a8565b610c34565b005b4782111561037f57600080fd5b6000600260008573ffffffffffffffffffffffffffffffffffffffff1673ffffffffffffffffffffffffffffffffffffffff16815260200190815260200160002060003373ffffffffffffffffffffffffffffffffffffffff1673ffffffffffffffffffffffffffffffffffffffff1681526020019081526020016000206000600115151515815260200190815260200160002060008015151515815260200190815260200160002054905060008433858460405160200161044494939291906119eb565b604051602081830303815290604052805190602001209050600061046882856108b4565b905060011515811515146104b1576040517f08c379a00000000000000000000000000000000000000000000000000000000081526004016104a890611aa1565b60405180910390fd5b84600260008873ffffffffffffffffffffffffffffffffffffffff1673ffffffffffffffffffffffffffffffffffffffff16815260200190815260200160002060003373ffffffffffffffffffffffffffffffffffffffff1673ffffffffffffffffffffffffffffffffffffffff1681526020019081526020016000206000600115151515815260200190815260200160002060008015151515815260200190815260200160002060008282546105689190611391565b9250508190555060003373ffffffffffffffffffffffffffffffffffffffff168660405161059590611af2565b60006040518083038185875af1925050503d80600081146105d2576040519150601f19603f3d011682016040523d82523d6000602084013e6105d7565b606091505b505090506001151581151514610622576040517f08c379a000000000000000000000000000000000000000000000000000000000815260040161061990611b53565b60405180910390fd5b853373ffffffffffffffffffffffffffffffffffffffff168873ffffffffffffffffffffffffffffffffffffffff167f6de982c117e498e9ad35f997f528361698b30e696d4672d3e83fe8fbfe0d5f6760016000604051610684929190611402565b60405180910390a450505050505050565b60006020528060005260406000206000915054906101000a900460ff1681565b81600260003373ffffffffffffffffffffffffffffffffffffffff1673ffffffffffffffffffffffffffffffffffffffff16815260200190815260200160002060008373ffffffffffffffffffffffffffffffffffffffff1673ffffffffffffffffffffffffffffffffffffffff16815260200190815260200160002060008015151515815260200190815260200160002060006001151515158152602001908152602001600020600082825461076c9190611391565b92505081905550600083905060008173ffffffffffffffffffffffffffffffffffffffff166323b872dd3330876040518463ffffffff1660e01b81526004016107b793929190611b82565b6020604051808303816000875af11580156107d6573d6000803e3d6000fd5b505050506040513d601f19601f820116820180604052508101906107fa9190611bce565b90506001151581151514610843576040517f08c379a000000000000000000000000000000000000000000000000000000000815260040161083a90611c47565b60405180910390fd5b838373ffffffffffffffffffffffffffffffffffffffff163373ffffffffffffffffffffffffffffffffffffffff167f6de982c117e498e9ad35f997f528361698b30e696d4672d3e83fe8fbfe0d5f67600060016040516108a5929190611402565b60405180910390a45050505050565b6000806108c084611068565b905060006108ce8285611098565b90506000808273ffffffffffffffffffffffffffffffffffffffff1673ffffffffffffffffffffffffffffffffffffffff16815260200190815260200160002060009054906101000a900460ff16806109705750600160008273ffffffffffffffffffffffffffffffffffffffff1673ffffffffffffffffffffffffffffffffffffffff16815260200190815260200160002060009054906101000a900460ff165b9250505092915050565b60011515600160003373ffffffffffffffffffffffffffffffffffffffff1673ffffffffffffffffffffffffffffffffffffffff16815260200190815260200160002060009054906101000a900460ff16151514610a0d576040517f08c379a0000000000000000000000000000000000000000000000000000000008152600401610a0490611cb3565b60405180910390fd5b806000808473ffffffffffffffffffffffffffffffffffffffff1673ffffffffffffffffffffffffffffffffffffffff16815260200190815260200160002060006101000a81548160ff0219169083151502179055505050565b60026020528360005260406000206020528260005260406000206020528160005260406000206020528060005260406000206000935093505050505481565b60003411610ae9576040517f08c379a0000000000000000000000000000000000000000000000000000000008152600401610ae090611d1f565b60405180910390fd5b34600260003373ffffffffffffffffffffffffffffffffffffffff1673ffffffffffffffffffffffffffffffffffffffff16815260200190815260200160002060008373ffffffffffffffffffffffffffffffffffffffff1673ffffffffffffffffffffffffffffffffffffffff16815260200190815260200160002060006001151515158152602001908152602001600020600060011515151581526020019081526020016000206000828254610ba19190611391565b92505081905550348173ffffffffffffffffffffffffffffffffffffffff163373ffffffffffffffffffffffffffffffffffffffff167f6de982c117e498e9ad35f997f528361698b30e696d4672d3e83fe8fbfe0d5f67600180604051610c09929190611402565b60405180910390a450565b60016020528060005260406000206000915054906101000a900460ff1681565b60003390506000600260008773ffffffffffffffffffffffffffffffffffffffff1673ffffffffffffffffffffffffffffffffffffffff16815260200190815260200160002060008373ffffffffffffffffffffffffffffffffffffffff1673ffffffffffffffffffffffffffffffffffffffff168152602001908152602001600020600080151515158152602001908152602001600020600080151515158152602001908152602001600020549050600086838684604051602001610cfd9493929190611d8b565b6040516020818303038152906040528051906020012090506000610d2182866108b4565b90506001151581151514610d6a576040517f08c379a0000000000000000000000000000000000000000000000000000000008152600401610d6190611aa1565b60405180910390fd5b85600260008a73ffffffffffffffffffffffffffffffffffffffff1673ffffffffffffffffffffffffffffffffffffffff16815260200190815260200160002060008673ffffffffffffffffffffffffffffffffffffffff1673ffffffffffffffffffffffffffffffffffffffff1681526020019081526020016000206000801515151581526020019081526020016000206000801515151581526020019081526020016000206000828254610e209190611391565b92505081905550600087905060008173ffffffffffffffffffffffffffffffffffffffff166370a08231306040518263ffffffff1660e01b8152600401610e679190611de4565b602060405180830381865afa158015610e84573d6000803e3d6000fd5b505050506040513d601f19601f82011682018060405250810190610ea89190611e14565b905087811015610f29578173ffffffffffffffffffffffffffffffffffffffff1663a0712d68828a610eda9190611e41565b6040518263ffffffff1660e01b8152600401610ef6919061188d565b600060405180830381600087803b158015610f1057600080fd5b505af1158015610f24573d6000803e3d6000fd5b505050505b60008273ffffffffffffffffffffffffffffffffffffffff1663a9059cbb888b6040518363ffffffff1660e01b8152600401610f66929190611e75565b6020604051808303816000875af1158015610f85573d6000803e3d6000fd5b505050506040513d601f19601f82011682018060405250810190610fa99190611bce565b90506001151581151514610ff2576040517f08c379a0000000000000000000000000000000000000000000000000000000008152600401610fe990611eea565b60405180910390fd5b888773ffffffffffffffffffffffffffffffffffffffff168c73ffffffffffffffffffffffffffffffffffffffff167f6de982c117e498e9ad35f997f528361698b30e696d4672d3e83fe8fbfe0d5f67600080604051611053929190611402565b60405180910390a45050505050505050505050565b60008160405160200161107b9190611f77565b604051602081830303815290604052805190602001209050919050565b60008060006110a785856110bf565b915091506110b481611110565b819250505092915050565b60008060418351036111005760008060006020860151925060408601519150606086015160001a90506110f487828585611276565b94509450505050611109565b60006002915091505b9250929050565b6000600481111561112457611123611f9d565b5b81600481111561113757611136611f9d565b5b0315611273576001600481111561115157611150611f9d565b5b81600481111561116457611163611f9d565b5b036111a4576040517f08c379a000000000000000000000000000000000000000000000000000000000815260040161119b90612018565b60405180910390fd5b600260048111156111b8576111b7611f9d565b5b8160048111156111cb576111ca611f9d565b5b0361120b576040517f08c379a000000000000000000000000000000000000000000000000000000000815260040161120290612084565b60405180910390fd5b6003600481111561121f5761121e611f9d565b5b81600481111561123257611231611f9d565b5b03611272576040517f08c379a000000000000000000000000000000000000000000000000000000000815260040161126990612116565b60405180910390fd5b5b50565b6000807f7fffffffffffffffffffffffffffffff5d576e7357a4501ddfe92f46681b20a08360001c11156112b157600060039150915061134f565b6000600187878787604051600081526020016040526040516112d69493929190612161565b6020604051602081039080840390855afa1580156112f8573d6000803e3d6000fd5b505050602060405103519050600073ffffffffffffffffffffffffffffffffffffffff168173ffffffffffffffffffffffffffffffffffffffff16036113465760006001925092505061134f565b80600092509250505b94509492505050565b6000819050919050565b7f4e487b7100000000000000000000000000000000000000000000000000000000600052601160045260246000fd5b600061139c82611358565b91506113a783611358565b9250827fffffffffffffffffffffffffffffffffffffffffffffffffffffffffffffffff038211156113dc576113db611362565b5b828201905092915050565b60008115159050919050565b6113fc816113e7565b82525050565b600060408201905061141760008301856113f3565b61142460208301846113f3565b9392505050565b6000604051905090565b600080fd5b600080fd5b600073ffffffffffffffffffffffffffffffffffffffff82169050919050565b600061146a8261143f565b9050919050565b61147a8161145f565b811461148557600080fd5b50565b60008135905061149781611471565b92915050565b6114a681611358565b81146114b157600080fd5b50565b6000813590506114c38161149d565b92915050565b600080fd5b600080fd5b6000601f19601f8301169050919050565b7f4e487b7100000000000000000000000000000000000000000000000000000000600052604160045260246000fd5b61151c826114d3565b810181811067ffffffffffffffff8211171561153b5761153a6114e4565b5b80604052505050565b600061154e61142b565b905061155a8282611513565b919050565b600067ffffffffffffffff82111561157a576115796114e4565b5b611583826114d3565b9050602081019050919050565b82818337600083830152505050565b60006115b26115ad8461155f565b611544565b9050828152602081018484840111156115ce576115cd6114ce565b5b6115d9848285611590565b509392505050565b600082601f8301126115f6576115f56114c9565b5b813561160684826020860161159f565b91505092915050565b60008060006060848603121561162857611627611435565b5b600061163686828701611488565b9350506020611647868287016114b4565b925050604084013567ffffffffffffffff8111156116685761166761143a565b5b611674868287016115e1565b9150509250925092565b60006020828403121561169457611693611435565b5b60006116a284828501611488565b91505092915050565b60006020820190506116c060008301846113f3565b92915050565b6000806000606084860312156116df576116de611435565b5b60006116ed86828701611488565b93505060206116fe868287016114b4565b925050604061170f86828701611488565b9150509250925092565b6000819050919050565b61172c81611719565b811461173757600080fd5b50565b60008135905061174981611723565b92915050565b6000806040838503121561176657611765611435565b5b60006117748582860161173a565b925050602083013567ffffffffffffffff8111156117955761179461143a565b5b6117a1858286016115e1565b9150509250929050565b6117b4816113e7565b81146117bf57600080fd5b50565b6000813590506117d1816117ab565b92915050565b600080604083850312156117ee576117ed611435565b5b60006117fc85828601611488565b925050602061180d858286016117c2565b9150509250929050565b6000806000806080858703121561183157611830611435565b5b600061183f87828801611488565b945050602061185087828801611488565b9350506040611861878288016117c2565b9250506060611872878288016117c2565b91505092959194509250565b61188781611358565b82525050565b60006020820190506118a2600083018461187e565b92915050565b600080600080608085870312156118c2576118c1611435565b5b60006118d087828801611488565b94505060206118e187828801611488565b93505060406118f2878288016114b4565b925050606085013567ffffffffffffffff8111156119135761191261143a565b5b61191f878288016115e1565b91505092959194509250565b600081905092915050565b7f7472616e736665725f6e61746976650000000000000000000000000000000000600082015250565b600061196c600f8361192b565b915061197782611936565b600f82019050919050565b60008160601b9050919050565b600061199a82611982565b9050919050565b60006119ac8261198f565b9050919050565b6119c46119bf8261145f565b6119a1565b82525050565b6000819050919050565b6119e56119e082611358565b6119ca565b82525050565b60006119f68261195f565b9150611a0282876119b3565b601482019150611a1282866119b3565b601482019150611a2282856119d4565b602082019150611a3282846119d4565b60208201915081905095945050505050565b600082825260208201905092915050565b7f4661696c20746f20766572696679000000000000000000000000000000000000600082015250565b6000611a8b600e83611a44565b9150611a9682611a55565b602082019050919050565b60006020820190508181036000830152611aba81611a7e565b9050919050565b600081905092915050565b50565b6000611adc600083611ac1565b9150611ae782611acc565b600082019050919050565b6000611afd82611acf565b9150819050919050565b7f4661696c20746f207472616e7366657200000000000000000000000000000000600082015250565b6000611b3d601083611a44565b9150611b4882611b07565b602082019050919050565b60006020820190508181036000830152611b6c81611b30565b9050919050565b611b7c8161145f565b82525050565b6000606082019050611b976000830186611b73565b611ba46020830185611b73565b611bb1604083018461187e565b949350505050565b600081519050611bc8816117ab565b92915050565b600060208284031215611be457611be3611435565b5b6000611bf284828501611bb9565b91505092915050565b7f43616e2774206c6f636b00000000000000000000000000000000000000000000600082015250565b6000611c31600a83611a44565b9150611c3c82611bfb565b602082019050919050565b60006020820190508181036000830152611c6081611c24565b9050919050565b7f4e65656420746f2062652073757065722061646d696e00000000000000000000600082015250565b6000611c9d601683611a44565b9150611ca882611c67565b602082019050919050565b60006020820190508181036000830152611ccc81611c90565b9050919050565b7f5472616e73666572207a65726f00000000000000000000000000000000000000600082015250565b6000611d09600d83611a44565b9150611d1482611cd3565b602082019050919050565b60006020820190508181036000830152611d3881611cfc565b9050919050565b7f756e6c6f636b0000000000000000000000000000000000000000000000000000600082015250565b6000611d7560068361192b565b9150611d8082611d3f565b600682019050919050565b6000611d9682611d68565b9150611da282876119b3565b601482019150611db282866119b3565b601482019150611dc282856119d4565b602082019150611dd282846119d4565b60208201915081905095945050505050565b6000602082019050611df96000830184611b73565b92915050565b600081519050611e0e8161149d565b92915050565b600060208284031215611e2a57611e29611435565b5b6000611e3884828501611dff565b91505092915050565b6000611e4c82611358565b9150611e5783611358565b925082821015611e6a57611e69611362565b5b828203905092915050565b6000604082019050611e8a6000830185611b73565b611e97602083018461187e565b9392505050565b7f43616e277420756e6c6f636b0000000000000000000000000000000000000000600082015250565b6000611ed4600c83611a44565b9150611edf82611e9e565b602082019050919050565b60006020820190508181036000830152611f0381611ec7565b9050919050565b7f19457468657265756d205369676e6564204d6573736167653a0a333200000000600082015250565b6000611f40601c8361192b565b9150611f4b82611f0a565b601c82019050919050565b6000819050919050565b611f71611f6c82611719565b611f56565b82525050565b6000611f8282611f33565b9150611f8e8284611f60565b60208201915081905092915050565b7f4e487b7100000000000000000000000000000000000000000000000000000000600052602160045260246000fd5b7f45434453413a20696e76616c6964207369676e61747572650000000000000000600082015250565b6000612002601883611a44565b915061200d82611fcc565b602082019050919050565b6000602082019050818103600083015261203181611ff5565b9050919050565b7f45434453413a20696e76616c6964207369676e6174757265206c656e67746800600082015250565b600061206e601f83611a44565b915061207982612038565b602082019050919050565b6000602082019050818103600083015261209d81612061565b9050919050565b7f45434453413a20696e76616c6964207369676e6174757265202773272076616c60008201527f7565000000000000000000000000000000000000000000000000000000000000602082015250565b6000612100602283611a44565b915061210b826120a4565b604082019050919050565b6000602082019050818103600083015261212f816120f3565b9050919050565b61213f81611719565b82525050565b600060ff82169050919050565b61215b81612145565b82525050565b60006080820190506121766000830187612136565b6121836020830186612152565b6121906040830185612136565b61219d6060830184612136565b9594505050505056fea264697066735822122053d90bd2ed6c85e5d3df37407fafb49c65277990e791c4a4143bafb99de8951464736f6c634300080d0033",
  "immutableReferences": {},
  "source": "// SPDX-License-Identifier: MIT\r\n\r\npragma solidity >=0.8.0 <0.9.0;\r\n\r\n\r\nimport \"@openzeppelin/contracts/token/ERC20/IERC20.sol\";\r\nimport \"@openzeppelin/contracts/utils/cryptography/ECDSA.sol\";\r\n\r\n\r\n/**\r\n * @title SampleERC20\r\n * @dev Create a sample ERC20 standard token\r\n */\r\n\r\ninterface MintableIERC20 is IERC20{\r\n    function mint(uint256 amount) external;\r\n}\r\n\r\ncontract BridgeERC20 {\r\n    mapping (address => bool) public admins;\r\n    mapping (address => bool) public super_admins;\r\n    \r\n    //From_address => To_address => isNative => isLock => Uint256 (Amounts)\r\n    mapping (address => mapping(address => mapping(bool => mapping(bool => uint256)))) public TrackingAmounts;\r\n    \r\n    event TransactToken(address indexed from, address indexed to, uint256 indexed amount, bool is_native, bool is_lock);\r\n\r\n\r\n    constructor(address[] memory _super_admins) payable {\r\n        for (uint i=0; i < _super_admins.length; i++){\r\n            super_admins[_super_admins[i]] = true;\r\n        }\r\n        \r\n    }\r\n\r\n    modifier only_admin(){\r\n        require(admins[msg.sender] == true || super_admins[msg.sender] == true, \"Need to be admin\");\r\n        _;\r\n    }\r\n\r\n    modifier only_super_admin(){\r\n        require(super_admins[msg.sender] == true, \"Need to be super admin\");\r\n        _;\r\n    }\r\n\r\n\r\n    function change_admins(address acc, bool allow) public only_super_admin{\r\n        admins[acc] = allow;\r\n    }\r\n\r\n    //Verify signature\r\n    function check_signature(bytes32 messageHash, bytes memory signature) public view returns(bool){\r\n        bytes32 EthHash = ECDSA.toEthSignedMessageHash(messageHash);\r\n        address signer = ECDSA.recover(EthHash, signature);\r\n        return(admins[signer] || super_admins[signer]);\r\n    }\r\n\r\n    //Automatic receive - To transfer from 1 acc to the same acc \r\n    receive() external payable {\r\n        require(msg.value > 0);\r\n        TrackingAmounts[msg.sender][msg.sender][true][true] += msg.value;\r\n        emit TransactToken(msg.sender, msg.sender, msg.value, true, true);\r\n    }\r\n\r\n    \r\n    //Receiver\r\n    function receive_native(address to) public payable {\r\n        require(msg.value > 0, \"Transfer zero\");\r\n        TrackingAmounts[msg.sender][to][true][true] += msg.value;\r\n        emit TransactToken(msg.sender, to, msg.value, true, true);\r\n    }\r\n\r\n\r\n    //Transfer Native\r\n    function transfer_native(address from, uint256 amount, bytes memory signature) public payable {\r\n        require(amount <= address(this).balance);\r\n        uint256 nonce = TrackingAmounts[from][msg.sender][true][false];\r\n        bytes32 messageHash = keccak256(abi.encodePacked(\"transfer_native\", from, msg.sender, amount, nonce));\r\n        bool check = check_signature(messageHash, signature);\r\n        require(check == true, \"Fail to verify\");\r\n\r\n        TrackingAmounts[from][msg.sender][true][false] += amount;\r\n        (bool sent, ) = (msg.sender).call{value: amount}(\"\");\r\n        require(sent == true, \"Fail to transfer\");\r\n        emit TransactToken(from, msg.sender, amount, true, false);\r\n    }\r\n\r\n\r\n    //Lock, require APPROVAL\r\n    function lock(address from_contract_add, uint256 amount, address to) public {\r\n        TrackingAmounts[msg.sender][to][false][true] += amount;\r\n        IERC20 from_contract = IERC20(from_contract_add);\r\n        bool success = from_contract.transferFrom(msg.sender, address(this), amount);\r\n        require(success == true, \"Can't lock\");\r\n        emit TransactToken(msg.sender, to, amount, false, true);\r\n    }\r\n\r\n    //Need to make Bridge an admin in ERC20 contract for minting\r\n    //Unlock\r\n    function unlock(address from, address to_contract_add, uint256 amount, bytes memory signature) public {\r\n        address to = msg.sender;\r\n        uint256 nonce = TrackingAmounts[from][to][false][false];\r\n        bytes32 messageHash = keccak256(abi.encodePacked(\"unlock\", from, to, amount, nonce));\r\n        bool check = check_signature(messageHash, signature);\r\n        require(check == true, \"Fail to verify\");\r\n\r\n        TrackingAmounts[from][to][false][false] += amount;\r\n        MintableIERC20 to_contract = MintableIERC20(to_contract_add);\r\n        uint256 total = to_contract.balanceOf(address(this));\r\n        if (total < amount){\r\n            to_contract.mint(amount - total);\r\n        }\r\n        bool success = to_contract.transfer(to, amount);\r\n        require(success == true, \"Can't unlock\");\r\n        emit TransactToken(from, to, amount, false, false);\r\n    }\r\n}",
  "sourcePath": "C:\\Users\\khang\\OneDrive\\Desktop\\Blockchain\\bridge-react\\Bridge_reduced_admin\\truffle-test\\contracts\\BridgeERC20_v3.sol",
  "compiler": {
    "name": "solc",
    "version": "0.8.13+commit.abaa5c0e.Emscripten.clang"
  },
  "schemaVersion": "3.4.10",
  "updatedAt": "2022-11-24T06:36:40.670Z",
  "devdoc": {
    "kind": "dev",
    "methods": {},
    "version": 1
  },
  "userdoc": {
    "kind": "user",
    "methods": {},
    "version": 1
  }
}