{
  "contractName": "ERC20_v2",
  "abi": [
    {
      "inputs": [
        {
          "internalType": "string",
          "name": "tokenName",
          "type": "string"
        },
        {
          "internalType": "string",
          "name": "tokenSymbol",
          "type": "string"
        },
        {
          "internalType": "address[]",
          "name": "_admins",
          "type": "address[]"
        }
      ],
      "stateMutability": "nonpayable",
      "type": "constructor"
    },
    {
      "anonymous": false,
      "inputs": [
        {
          "indexed": true,
          "internalType": "address",
          "name": "owner",
          "type": "address"
        },
        {
          "indexed": true,
          "internalType": "address",
          "name": "spender",
          "type": "address"
        },
        {
          "indexed": false,
          "internalType": "uint256",
          "name": "value",
          "type": "uint256"
        }
      ],
      "name": "Approval",
      "type": "event"
    },
    {
      "anonymous": false,
      "inputs": [
        {
          "indexed": true,
          "internalType": "address",
          "name": "from",
          "type": "address"
        },
        {
          "indexed": true,
          "internalType": "address",
          "name": "to",
          "type": "address"
        },
        {
          "indexed": false,
          "internalType": "uint256",
          "name": "value",
          "type": "uint256"
        }
      ],
      "name": "Transfer",
      "type": "event"
    },
    {
      "inputs": [
        {
          "internalType": "address",
          "name": "",
          "type": "address"
        }
      ],
      "name": "admins",
      "outputs": [
        {
          "internalType": "bool",
          "name": "",
          "type": "bool"
        }
      ],
      "stateMutability": "view",
      "type": "function"
    },
    {
      "inputs": [
        {
          "internalType": "address",
          "name": "owner",
          "type": "address"
        },
        {
          "internalType": "address",
          "name": "spender",
          "type": "address"
        }
      ],
      "name": "allowance",
      "outputs": [
        {
          "internalType": "uint256",
          "name": "",
          "type": "uint256"
        }
      ],
      "stateMutability": "view",
      "type": "function"
    },
    {
      "inputs": [
        {
          "internalType": "address",
          "name": "spender",
          "type": "address"
        },
        {
          "internalType": "uint256",
          "name": "amount",
          "type": "uint256"
        }
      ],
      "name": "approve",
      "outputs": [
        {
          "internalType": "bool",
          "name": "",
          "type": "bool"
        }
      ],
      "stateMutability": "nonpayable",
      "type": "function"
    },
    {
      "inputs": [
        {
          "internalType": "address",
          "name": "account",
          "type": "address"
        }
      ],
      "name": "balanceOf",
      "outputs": [
        {
          "internalType": "uint256",
          "name": "",
          "type": "uint256"
        }
      ],
      "stateMutability": "view",
      "type": "function"
    },
    {
      "inputs": [],
      "name": "decimals",
      "outputs": [
        {
          "internalType": "uint8",
          "name": "",
          "type": "uint8"
        }
      ],
      "stateMutability": "view",
      "type": "function"
    },
    {
      "inputs": [
        {
          "internalType": "address",
          "name": "spender",
          "type": "address"
        },
        {
          "internalType": "uint256",
          "name": "subtractedValue",
          "type": "uint256"
        }
      ],
      "name": "decreaseAllowance",
      "outputs": [
        {
          "internalType": "bool",
          "name": "",
          "type": "bool"
        }
      ],
      "stateMutability": "nonpayable",
      "type": "function"
    },
    {
      "inputs": [
        {
          "internalType": "address",
          "name": "spender",
          "type": "address"
        },
        {
          "internalType": "uint256",
          "name": "addedValue",
          "type": "uint256"
        }
      ],
      "name": "increaseAllowance",
      "outputs": [
        {
          "internalType": "bool",
          "name": "",
          "type": "bool"
        }
      ],
      "stateMutability": "nonpayable",
      "type": "function"
    },
    {
      "inputs": [],
      "name": "name",
      "outputs": [
        {
          "internalType": "string",
          "name": "",
          "type": "string"
        }
      ],
      "stateMutability": "view",
      "type": "function"
    },
    {
      "inputs": [],
      "name": "symbol",
      "outputs": [
        {
          "internalType": "string",
          "name": "",
          "type": "string"
        }
      ],
      "stateMutability": "view",
      "type": "function"
    },
    {
      "inputs": [],
      "name": "totalSupply",
      "outputs": [
        {
          "internalType": "uint256",
          "name": "",
          "type": "uint256"
        }
      ],
      "stateMutability": "view",
      "type": "function"
    },
    {
      "inputs": [
        {
          "internalType": "address",
          "name": "to",
          "type": "address"
        },
        {
          "internalType": "uint256",
          "name": "amount",
          "type": "uint256"
        }
      ],
      "name": "transfer",
      "outputs": [
        {
          "internalType": "bool",
          "name": "",
          "type": "bool"
        }
      ],
      "stateMutability": "nonpayable",
      "type": "function"
    },
    {
      "inputs": [
        {
          "internalType": "address",
          "name": "from",
          "type": "address"
        },
        {
          "internalType": "address",
          "name": "to",
          "type": "address"
        },
        {
          "internalType": "uint256",
          "name": "amount",
          "type": "uint256"
        }
      ],
      "name": "transferFrom",
      "outputs": [
        {
          "internalType": "bool",
          "name": "",
          "type": "bool"
        }
      ],
      "stateMutability": "nonpayable",
      "type": "function"
    },
    {
      "inputs": [
        {
          "internalType": "address",
          "name": "acc",
          "type": "address"
        },
        {
          "internalType": "bool",
          "name": "allow",
          "type": "bool"
        }
      ],
      "name": "change_admins",
      "outputs": [],
      "stateMutability": "nonpayable",
      "type": "function"
    },
    {
      "inputs": [
        {
          "internalType": "uint256",
          "name": "amount",
          "type": "uint256"
        }
      ],
      "name": "mint",
      "outputs": [],
      "stateMutability": "nonpayable",
      "type": "function"
    }
  ],
  "bytecode": "0x60806040523480156200001157600080fd5b50604051620022783803806200227883398181016040528101906200003791906200066b565b8282816003908051906020019062000051929190620002de565b5080600490805190602001906200006a929190620002de565b50505060005b8151811015620001545760016005600084848151811062000096576200009562000724565b5b602002602001015173ffffffffffffffffffffffffffffffffffffffff1673ffffffffffffffffffffffffffffffffffffffff16815260200190815260200160002060006101000a81548160ff0219169083151502179055506200013e82828151811062000109576200010862000724565b5b6020026020010151620001216200015e60201b60201c565b60ff16600a620001329190620008e0565b6200016760201b60201c565b80806200014b9062000931565b91505062000070565b5050505062000af0565b60006012905090565b600073ffffffffffffffffffffffffffffffffffffffff168273ffffffffffffffffffffffffffffffffffffffff1603620001d9576040517f08c379a0000000000000000000000000000000000000000000000000000000008152600401620001d090620009df565b60405180910390fd5b620001ed60008383620002d460201b60201c565b806002600082825462000201919062000a01565b92505081905550806000808473ffffffffffffffffffffffffffffffffffffffff1673ffffffffffffffffffffffffffffffffffffffff168152602001908152602001600020600082825401925050819055508173ffffffffffffffffffffffffffffffffffffffff16600073ffffffffffffffffffffffffffffffffffffffff167fddf252ad1be2c89b69c2b068fc378daa952ba7f163c4a11628f55a4df523b3ef83604051620002b4919062000a6f565b60405180910390a3620002d060008383620002d960201b60201c565b5050565b505050565b505050565b828054620002ec9062000abb565b90600052602060002090601f0160209004810192826200031057600085556200035c565b82601f106200032b57805160ff19168380011785556200035c565b828001600101855582156200035c579182015b828111156200035b5782518255916020019190600101906200033e565b5b5090506200036b91906200036f565b5090565b5b808211156200038a57600081600090555060010162000370565b5090565b6000604051905090565b600080fd5b600080fd5b600080fd5b600080fd5b6000601f19601f8301169050919050565b7f4e487b7100000000000000000000000000000000000000000000000000000000600052604160045260246000fd5b620003f782620003ac565b810181811067ffffffffffffffff82111715620004195762000418620003bd565b5b80604052505050565b60006200042e6200038e565b90506200043c8282620003ec565b919050565b600067ffffffffffffffff8211156200045f576200045e620003bd565b5b6200046a82620003ac565b9050602081019050919050565b60005b83811015620004975780820151818401526020810190506200047a565b83811115620004a7576000848401525b50505050565b6000620004c4620004be8462000441565b62000422565b905082815260208101848484011115620004e357620004e2620003a7565b5b620004f084828562000477565b509392505050565b600082601f83011262000510576200050f620003a2565b5b815162000522848260208601620004ad565b91505092915050565b600067ffffffffffffffff821115620005495762000548620003bd565b5b602082029050602081019050919050565b600080fd5b600073ffffffffffffffffffffffffffffffffffffffff82169050919050565b60006200058c826200055f565b9050919050565b6200059e816200057f565b8114620005aa57600080fd5b50565b600081519050620005be8162000593565b92915050565b6000620005db620005d5846200052b565b62000422565b905080838252602082019050602084028301858111156200060157620006006200055a565b5b835b818110156200062e5780620006198882620005ad565b84526020840193505060208101905062000603565b5050509392505050565b600082601f83011262000650576200064f620003a2565b5b815162000662848260208601620005c4565b91505092915050565b60008060006060848603121562000687576200068662000398565b5b600084015167ffffffffffffffff811115620006a857620006a76200039d565b5b620006b686828701620004f8565b935050602084015167ffffffffffffffff811115620006da57620006d96200039d565b5b620006e886828701620004f8565b925050604084015167ffffffffffffffff8111156200070c576200070b6200039d565b5b6200071a8682870162000638565b9150509250925092565b7f4e487b7100000000000000000000000000000000000000000000000000000000600052603260045260246000fd5b7f4e487b7100000000000000000000000000000000000000000000000000000000600052601160045260246000fd5b60008160011c9050919050565b6000808291508390505b6001851115620007e157808604811115620007b957620007b862000753565b5b6001851615620007c95780820291505b8081029050620007d98562000782565b945062000799565b94509492505050565b600082620007fc5760019050620008cf565b816200080c5760009050620008cf565b8160018114620008255760028114620008305762000866565b6001915050620008cf565b60ff84111562000845576200084462000753565b5b8360020a9150848211156200085f576200085e62000753565b5b50620008cf565b5060208310610133831016604e8410600b8410161715620008a05782820a9050838111156200089a576200089962000753565b5b620008cf565b620008af84848460016200078f565b92509050818404811115620008c957620008c862000753565b5b81810290505b9392505050565b6000819050919050565b6000620008ed82620008d6565b9150620008fa83620008d6565b9250620009297fffffffffffffffffffffffffffffffffffffffffffffffffffffffffffffffff8484620007ea565b905092915050565b60006200093e82620008d6565b91507fffffffffffffffffffffffffffffffffffffffffffffffffffffffffffffffff820362000973576200097262000753565b5b600182019050919050565b600082825260208201905092915050565b7f45524332303a206d696e7420746f20746865207a65726f206164647265737300600082015250565b6000620009c7601f836200097e565b9150620009d4826200098f565b602082019050919050565b60006020820190508181036000830152620009fa81620009b8565b9050919050565b600062000a0e82620008d6565b915062000a1b83620008d6565b9250827fffffffffffffffffffffffffffffffffffffffffffffffffffffffffffffffff0382111562000a535762000a5262000753565b5b828201905092915050565b62000a6981620008d6565b82525050565b600060208201905062000a86600083018462000a5e565b92915050565b7f4e487b7100000000000000000000000000000000000000000000000000000000600052602260045260246000fd5b6000600282049050600182168062000ad457607f821691505b60208210810362000aea5762000ae962000a8c565b5b50919050565b6117788062000b006000396000f3fe608060405234801561001057600080fd5b50600436106100ea5760003560e01c806370a082311161008c578063a457c2d711610066578063a457c2d714610273578063a9059cbb146102a3578063bbd24510146102d3578063dd62ed3e146102ef576100ea565b806370a082311461020957806395d89b4114610239578063a0712d6814610257576100ea565b806323b872dd116100c857806323b872dd1461015b578063313ce5671461018b57806339509351146101a9578063429b62e5146101d9576100ea565b806306fdde03146100ef578063095ea7b31461010d57806318160ddd1461013d575b600080fd5b6100f761031f565b6040516101049190610ec2565b60405180910390f35b61012760048036038101906101229190610f7d565b6103b1565b6040516101349190610fd8565b60405180910390f35b6101456103d4565b6040516101529190611002565b60405180910390f35b6101756004803603810190610170919061101d565b6103de565b6040516101829190610fd8565b60405180910390f35b61019361040d565b6040516101a0919061108c565b60405180910390f35b6101c360048036038101906101be9190610f7d565b610416565b6040516101d09190610fd8565b60405180910390f35b6101f360048036038101906101ee91906110a7565b61044d565b6040516102009190610fd8565b60405180910390f35b610223600480360381019061021e91906110a7565b61046d565b6040516102309190611002565b60405180910390f35b6102416104b5565b60405161024e9190610ec2565b60405180910390f35b610271600480360381019061026c91906110d4565b610547565b005b61028d60048036038101906102889190610f7d565b6105e7565b60405161029a9190610fd8565b60405180910390f35b6102bd60048036038101906102b89190610f7d565b61065e565b6040516102ca9190610fd8565b60405180910390f35b6102ed60048036038101906102e8919061112d565b610681565b005b6103096004803603810190610304919061116d565b61076f565b6040516103169190611002565b60405180910390f35b60606003805461032e906111dc565b80601f016020809104026020016040519081016040528092919081815260200182805461035a906111dc565b80156103a75780601f1061037c576101008083540402835291602001916103a7565b820191906000526020600020905b81548152906001019060200180831161038a57829003601f168201915b5050505050905090565b6000806103bc6107f6565b90506103c98185856107fe565b600191505092915050565b6000600254905090565b6000806103e96107f6565b90506103f68582856109c7565b610401858585610a53565b60019150509392505050565b60006012905090565b6000806104216107f6565b9050610442818585610433858961076f565b61043d919061123c565b6107fe565b600191505092915050565b60056020528060005260406000206000915054906101000a900460ff1681565b60008060008373ffffffffffffffffffffffffffffffffffffffff1673ffffffffffffffffffffffffffffffffffffffff168152602001908152602001600020549050919050565b6060600480546104c4906111dc565b80601f01602080910402602001604051908101604052809291908181526020018280546104f0906111dc565b801561053d5780601f106105125761010080835404028352916020019161053d565b820191906000526020600020905b81548152906001019060200180831161052057829003601f168201915b5050505050905090565b60011515600560003373ffffffffffffffffffffffffffffffffffffffff1673ffffffffffffffffffffffffffffffffffffffff16815260200190815260200160002060009054906101000a900460ff161515146105da576040517f08c379a00000000000000000000000000000000000000000000000000000000081526004016105d1906112de565b60405180910390fd5b6105e43382610cc9565b50565b6000806105f26107f6565b90506000610600828661076f565b905083811015610645576040517f08c379a000000000000000000000000000000000000000000000000000000000815260040161063c90611370565b60405180910390fd5b61065282868684036107fe565b60019250505092915050565b6000806106696107f6565b9050610676818585610a53565b600191505092915050565b60011515600560003373ffffffffffffffffffffffffffffffffffffffff1673ffffffffffffffffffffffffffffffffffffffff16815260200190815260200160002060009054906101000a900460ff16151514610714576040517f08c379a000000000000000000000000000000000000000000000000000000000815260040161070b906112de565b60405180910390fd5b80600560008473ffffffffffffffffffffffffffffffffffffffff1673ffffffffffffffffffffffffffffffffffffffff16815260200190815260200160002060006101000a81548160ff0219169083151502179055505050565b6000600160008473ffffffffffffffffffffffffffffffffffffffff1673ffffffffffffffffffffffffffffffffffffffff16815260200190815260200160002060008373ffffffffffffffffffffffffffffffffffffffff1673ffffffffffffffffffffffffffffffffffffffff16815260200190815260200160002054905092915050565b600033905090565b600073ffffffffffffffffffffffffffffffffffffffff168373ffffffffffffffffffffffffffffffffffffffff160361086d576040517f08c379a000000000000000000000000000000000000000000000000000000000815260040161086490611402565b60405180910390fd5b600073ffffffffffffffffffffffffffffffffffffffff168273ffffffffffffffffffffffffffffffffffffffff16036108dc576040517f08c379a00000000000000000000000000000000000000000000000000000000081526004016108d390611494565b60405180910390fd5b80600160008573ffffffffffffffffffffffffffffffffffffffff1673ffffffffffffffffffffffffffffffffffffffff16815260200190815260200160002060008473ffffffffffffffffffffffffffffffffffffffff1673ffffffffffffffffffffffffffffffffffffffff168152602001908152602001600020819055508173ffffffffffffffffffffffffffffffffffffffff168373ffffffffffffffffffffffffffffffffffffffff167f8c5be1e5ebec7d5bd14f71427d1e84f3dd0314c0f7b2291e5b200ac8c7c3b925836040516109ba9190611002565b60405180910390a3505050565b60006109d3848461076f565b90507fffffffffffffffffffffffffffffffffffffffffffffffffffffffffffffffff8114610a4d5781811015610a3f576040517f08c379a0000000000000000000000000000000000000000000000000000000008152600401610a3690611500565b60405180910390fd5b610a4c84848484036107fe565b5b50505050565b600073ffffffffffffffffffffffffffffffffffffffff168373ffffffffffffffffffffffffffffffffffffffff1603610ac2576040517f08c379a0000000000000000000000000000000000000000000000000000000008152600401610ab990611592565b60405180910390fd5b600073ffffffffffffffffffffffffffffffffffffffff168273ffffffffffffffffffffffffffffffffffffffff1603610b31576040517f08c379a0000000000000000000000000000000000000000000000000000000008152600401610b2890611624565b60405180910390fd5b610b3c838383610e1f565b60008060008573ffffffffffffffffffffffffffffffffffffffff1673ffffffffffffffffffffffffffffffffffffffff16815260200190815260200160002054905081811015610bc2576040517f08c379a0000000000000000000000000000000000000000000000000000000008152600401610bb9906116b6565b60405180910390fd5b8181036000808673ffffffffffffffffffffffffffffffffffffffff1673ffffffffffffffffffffffffffffffffffffffff16815260200190815260200160002081905550816000808573ffffffffffffffffffffffffffffffffffffffff1673ffffffffffffffffffffffffffffffffffffffff168152602001908152602001600020600082825401925050819055508273ffffffffffffffffffffffffffffffffffffffff168473ffffffffffffffffffffffffffffffffffffffff167fddf252ad1be2c89b69c2b068fc378daa952ba7f163c4a11628f55a4df523b3ef84604051610cb09190611002565b60405180910390a3610cc3848484610e24565b50505050565b600073ffffffffffffffffffffffffffffffffffffffff168273ffffffffffffffffffffffffffffffffffffffff1603610d38576040517f08c379a0000000000000000000000000000000000000000000000000000000008152600401610d2f90611722565b60405180910390fd5b610d4460008383610e1f565b8060026000828254610d56919061123c565b92505081905550806000808473ffffffffffffffffffffffffffffffffffffffff1673ffffffffffffffffffffffffffffffffffffffff168152602001908152602001600020600082825401925050819055508173ffffffffffffffffffffffffffffffffffffffff16600073ffffffffffffffffffffffffffffffffffffffff167fddf252ad1be2c89b69c2b068fc378daa952ba7f163c4a11628f55a4df523b3ef83604051610e079190611002565b60405180910390a3610e1b60008383610e24565b5050565b505050565b505050565b600081519050919050565b600082825260208201905092915050565b60005b83811015610e63578082015181840152602081019050610e48565b83811115610e72576000848401525b50505050565b6000601f19601f8301169050919050565b6000610e9482610e29565b610e9e8185610e34565b9350610eae818560208601610e45565b610eb781610e78565b840191505092915050565b60006020820190508181036000830152610edc8184610e89565b905092915050565b600080fd5b600073ffffffffffffffffffffffffffffffffffffffff82169050919050565b6000610f1482610ee9565b9050919050565b610f2481610f09565b8114610f2f57600080fd5b50565b600081359050610f4181610f1b565b92915050565b6000819050919050565b610f5a81610f47565b8114610f6557600080fd5b50565b600081359050610f7781610f51565b92915050565b60008060408385031215610f9457610f93610ee4565b5b6000610fa285828601610f32565b9250506020610fb385828601610f68565b9150509250929050565b60008115159050919050565b610fd281610fbd565b82525050565b6000602082019050610fed6000830184610fc9565b92915050565b610ffc81610f47565b82525050565b60006020820190506110176000830184610ff3565b92915050565b60008060006060848603121561103657611035610ee4565b5b600061104486828701610f32565b935050602061105586828701610f32565b925050604061106686828701610f68565b9150509250925092565b600060ff82169050919050565b61108681611070565b82525050565b60006020820190506110a1600083018461107d565b92915050565b6000602082840312156110bd576110bc610ee4565b5b60006110cb84828501610f32565b91505092915050565b6000602082840312156110ea576110e9610ee4565b5b60006110f884828501610f68565b91505092915050565b61110a81610fbd565b811461111557600080fd5b50565b60008135905061112781611101565b92915050565b6000806040838503121561114457611143610ee4565b5b600061115285828601610f32565b925050602061116385828601611118565b9150509250929050565b6000806040838503121561118457611183610ee4565b5b600061119285828601610f32565b92505060206111a385828601610f32565b9150509250929050565b7f4e487b7100000000000000000000000000000000000000000000000000000000600052602260045260246000fd5b600060028204905060018216806111f457607f821691505b602082108103611207576112066111ad565b5b50919050565b7f4e487b7100000000000000000000000000000000000000000000000000000000600052601160045260246000fd5b600061124782610f47565b915061125283610f47565b9250827fffffffffffffffffffffffffffffffffffffffffffffffffffffffffffffffff038211156112875761128661120d565b5b828201905092915050565b7f4e65656420746f20626520616e2061646d696e00000000000000000000000000600082015250565b60006112c8601383610e34565b91506112d382611292565b602082019050919050565b600060208201905081810360008301526112f7816112bb565b9050919050565b7f45524332303a2064656372656173656420616c6c6f77616e63652062656c6f7760008201527f207a65726f000000000000000000000000000000000000000000000000000000602082015250565b600061135a602583610e34565b9150611365826112fe565b604082019050919050565b600060208201905081810360008301526113898161134d565b9050919050565b7f45524332303a20617070726f76652066726f6d20746865207a65726f2061646460008201527f7265737300000000000000000000000000000000000000000000000000000000602082015250565b60006113ec602483610e34565b91506113f782611390565b604082019050919050565b6000602082019050818103600083015261141b816113df565b9050919050565b7f45524332303a20617070726f766520746f20746865207a65726f20616464726560008201527f7373000000000000000000000000000000000000000000000000000000000000602082015250565b600061147e602283610e34565b915061148982611422565b604082019050919050565b600060208201905081810360008301526114ad81611471565b9050919050565b7f45524332303a20696e73756666696369656e7420616c6c6f77616e6365000000600082015250565b60006114ea601d83610e34565b91506114f5826114b4565b602082019050919050565b60006020820190508181036000830152611519816114dd565b9050919050565b7f45524332303a207472616e736665722066726f6d20746865207a65726f20616460008201527f6472657373000000000000000000000000000000000000000000000000000000602082015250565b600061157c602583610e34565b915061158782611520565b604082019050919050565b600060208201905081810360008301526115ab8161156f565b9050919050565b7f45524332303a207472616e7366657220746f20746865207a65726f206164647260008201527f6573730000000000000000000000000000000000000000000000000000000000602082015250565b600061160e602383610e34565b9150611619826115b2565b604082019050919050565b6000602082019050818103600083015261163d81611601565b9050919050565b7f45524332303a207472616e7366657220616d6f756e742065786365656473206260008201527f616c616e63650000000000000000000000000000000000000000000000000000602082015250565b60006116a0602683610e34565b91506116ab82611644565b604082019050919050565b600060208201905081810360008301526116cf81611693565b9050919050565b7f45524332303a206d696e7420746f20746865207a65726f206164647265737300600082015250565b600061170c601f83610e34565b9150611717826116d6565b602082019050919050565b6000602082019050818103600083015261173b816116ff565b905091905056fea2646970667358221220850751272ba9a222ba92a3a491cb7a3c2ebe4223f32539f56ef0b5c0079b98d564736f6c634300080d0033",
  "immutableReferences": {},
  "source": "// SPDX-License-Identifier: MIT\r\n\r\npragma solidity >=0.8.0 <0.9.0;\r\n\r\nimport \"@openzeppelin/contracts/token/ERC20/ERC20.sol\";\r\nimport \"@openzeppelin/contracts/token/ERC20/IERC20.sol\";\r\n\r\n\r\n/**\r\n * @title SampleERC20\r\n * @dev Create a sample ERC20 standard token\r\n */\r\ncontract ERC20_v2 is ERC20 {\r\n    mapping (address => bool) public admins;\r\n\r\n    constructor(string memory tokenName, string memory tokenSymbol, address[] memory _admins) ERC20(tokenName, tokenSymbol) {\r\n        for (uint i = 0; i < _admins.length; i++){\r\n            admins[_admins[i]] = true;\r\n            _mint(_admins[i], 10**uint(decimals()));\r\n        }\r\n    }\r\n\r\n    modifier only_admin(){\r\n        require(admins[msg.sender] == true, \"Need to be an admin\");\r\n        _;\r\n    }\r\n\r\n    function change_admins(address acc, bool allow) public only_admin{\r\n        admins[acc] = allow;\r\n    }\r\n\r\n    function mint(uint256 amount) public only_admin{\r\n        _mint(msg.sender, amount);\r\n    }\r\n    \r\n}",
  "sourcePath": "C:\\Users\\admin\\OneDrive\\Desktop\\Bridge_reduced_admin\\Blockchain-Bridge-VBC\\truffle-test\\contracts\\ERC20_v2.sol",
  "compiler": {
    "name": "solc",
    "version": "0.8.13+commit.abaa5c0e.Emscripten.clang"
  },
  "schemaVersion": "3.4.11",
  "updatedAt": "2022-12-02T07:49:07.710Z",
  "devdoc": {
    "details": "Create a sample ERC20 standard token",
    "kind": "dev",
    "methods": {
      "allowance(address,address)": {
        "details": "See {IERC20-allowance}."
      },
      "approve(address,uint256)": {
        "details": "See {IERC20-approve}. NOTE: If `amount` is the maximum `uint256`, the allowance is not updated on `transferFrom`. This is semantically equivalent to an infinite approval. Requirements: - `spender` cannot be the zero address."
      },
      "balanceOf(address)": {
        "details": "See {IERC20-balanceOf}."
      },
      "decimals()": {
        "details": "Returns the number of decimals used to get its user representation. For example, if `decimals` equals `2`, a balance of `505` tokens should be displayed to a user as `5.05` (`505 / 10 ** 2`). Tokens usually opt for a value of 18, imitating the relationship between Ether and Wei. This is the value {ERC20} uses, unless this function is overridden; NOTE: This information is only used for _display_ purposes: it in no way affects any of the arithmetic of the contract, including {IERC20-balanceOf} and {IERC20-transfer}."
      },
      "decreaseAllowance(address,uint256)": {
        "details": "Atomically decreases the allowance granted to `spender` by the caller. This is an alternative to {approve} that can be used as a mitigation for problems described in {IERC20-approve}. Emits an {Approval} event indicating the updated allowance. Requirements: - `spender` cannot be the zero address. - `spender` must have allowance for the caller of at least `subtractedValue`."
      },
      "increaseAllowance(address,uint256)": {
        "details": "Atomically increases the allowance granted to `spender` by the caller. This is an alternative to {approve} that can be used as a mitigation for problems described in {IERC20-approve}. Emits an {Approval} event indicating the updated allowance. Requirements: - `spender` cannot be the zero address."
      },
      "name()": {
        "details": "Returns the name of the token."
      },
      "symbol()": {
        "details": "Returns the symbol of the token, usually a shorter version of the name."
      },
      "totalSupply()": {
        "details": "See {IERC20-totalSupply}."
      },
      "transfer(address,uint256)": {
        "details": "See {IERC20-transfer}. Requirements: - `to` cannot be the zero address. - the caller must have a balance of at least `amount`."
      },
      "transferFrom(address,address,uint256)": {
        "details": "See {IERC20-transferFrom}. Emits an {Approval} event indicating the updated allowance. This is not required by the EIP. See the note at the beginning of {ERC20}. NOTE: Does not update the allowance if the current allowance is the maximum `uint256`. Requirements: - `from` and `to` cannot be the zero address. - `from` must have a balance of at least `amount`. - the caller must have allowance for ``from``'s tokens of at least `amount`."
      }
    },
    "title": "SampleERC20",
    "version": 1
  },
  "userdoc": {
    "kind": "user",
    "methods": {},
    "version": 1
  }
}