{
  "contractName": "ERC721_v2",
  "abi": [
    {
      "inputs": [
        {
          "internalType": "string",
          "name": "tokenName",
          "type": "string"
        },
        {
          "internalType": "string",
          "name": "tokenSymbol",
          "type": "string"
        },
        {
          "internalType": "address[]",
          "name": "_admins",
          "type": "address[]"
        }
      ],
      "stateMutability": "nonpayable",
      "type": "constructor"
    },
    {
      "anonymous": false,
      "inputs": [
        {
          "indexed": true,
          "internalType": "address",
          "name": "owner",
          "type": "address"
        },
        {
          "indexed": true,
          "internalType": "address",
          "name": "approved",
          "type": "address"
        },
        {
          "indexed": true,
          "internalType": "uint256",
          "name": "tokenId",
          "type": "uint256"
        }
      ],
      "name": "Approval",
      "type": "event"
    },
    {
      "anonymous": false,
      "inputs": [
        {
          "indexed": true,
          "internalType": "address",
          "name": "owner",
          "type": "address"
        },
        {
          "indexed": true,
          "internalType": "address",
          "name": "operator",
          "type": "address"
        },
        {
          "indexed": false,
          "internalType": "bool",
          "name": "approved",
          "type": "bool"
        }
      ],
      "name": "ApprovalForAll",
      "type": "event"
    },
    {
      "anonymous": false,
      "inputs": [
        {
          "indexed": true,
          "internalType": "address",
          "name": "from",
          "type": "address"
        },
        {
          "indexed": true,
          "internalType": "address",
          "name": "to",
          "type": "address"
        },
        {
          "indexed": true,
          "internalType": "uint256",
          "name": "tokenId",
          "type": "uint256"
        }
      ],
      "name": "Transfer",
      "type": "event"
    },
    {
      "inputs": [
        {
          "internalType": "address",
          "name": "",
          "type": "address"
        }
      ],
      "name": "admins",
      "outputs": [
        {
          "internalType": "bool",
          "name": "",
          "type": "bool"
        }
      ],
      "stateMutability": "view",
      "type": "function"
    },
    {
      "inputs": [
        {
          "internalType": "address",
          "name": "to",
          "type": "address"
        },
        {
          "internalType": "uint256",
          "name": "tokenId",
          "type": "uint256"
        }
      ],
      "name": "approve",
      "outputs": [],
      "stateMutability": "nonpayable",
      "type": "function"
    },
    {
      "inputs": [
        {
          "internalType": "address",
          "name": "owner",
          "type": "address"
        }
      ],
      "name": "balanceOf",
      "outputs": [
        {
          "internalType": "uint256",
          "name": "",
          "type": "uint256"
        }
      ],
      "stateMutability": "view",
      "type": "function"
    },
    {
      "inputs": [
        {
          "internalType": "uint256",
          "name": "tokenId",
          "type": "uint256"
        }
      ],
      "name": "getApproved",
      "outputs": [
        {
          "internalType": "address",
          "name": "",
          "type": "address"
        }
      ],
      "stateMutability": "view",
      "type": "function"
    },
    {
      "inputs": [
        {
          "internalType": "address",
          "name": "owner",
          "type": "address"
        },
        {
          "internalType": "address",
          "name": "operator",
          "type": "address"
        }
      ],
      "name": "isApprovedForAll",
      "outputs": [
        {
          "internalType": "bool",
          "name": "",
          "type": "bool"
        }
      ],
      "stateMutability": "view",
      "type": "function"
    },
    {
      "inputs": [],
      "name": "name",
      "outputs": [
        {
          "internalType": "string",
          "name": "",
          "type": "string"
        }
      ],
      "stateMutability": "view",
      "type": "function"
    },
    {
      "inputs": [
        {
          "internalType": "uint256",
          "name": "tokenId",
          "type": "uint256"
        }
      ],
      "name": "ownerOf",
      "outputs": [
        {
          "internalType": "address",
          "name": "",
          "type": "address"
        }
      ],
      "stateMutability": "view",
      "type": "function"
    },
    {
      "inputs": [
        {
          "internalType": "address",
          "name": "from",
          "type": "address"
        },
        {
          "internalType": "address",
          "name": "to",
          "type": "address"
        },
        {
          "internalType": "uint256",
          "name": "tokenId",
          "type": "uint256"
        }
      ],
      "name": "safeTransferFrom",
      "outputs": [],
      "stateMutability": "nonpayable",
      "type": "function"
    },
    {
      "inputs": [
        {
          "internalType": "address",
          "name": "from",
          "type": "address"
        },
        {
          "internalType": "address",
          "name": "to",
          "type": "address"
        },
        {
          "internalType": "uint256",
          "name": "tokenId",
          "type": "uint256"
        },
        {
          "internalType": "bytes",
          "name": "data",
          "type": "bytes"
        }
      ],
      "name": "safeTransferFrom",
      "outputs": [],
      "stateMutability": "nonpayable",
      "type": "function"
    },
    {
      "inputs": [
        {
          "internalType": "address",
          "name": "operator",
          "type": "address"
        },
        {
          "internalType": "bool",
          "name": "approved",
          "type": "bool"
        }
      ],
      "name": "setApprovalForAll",
      "outputs": [],
      "stateMutability": "nonpayable",
      "type": "function"
    },
    {
      "inputs": [
        {
          "internalType": "bytes4",
          "name": "interfaceId",
          "type": "bytes4"
        }
      ],
      "name": "supportsInterface",
      "outputs": [
        {
          "internalType": "bool",
          "name": "",
          "type": "bool"
        }
      ],
      "stateMutability": "view",
      "type": "function"
    },
    {
      "inputs": [],
      "name": "symbol",
      "outputs": [
        {
          "internalType": "string",
          "name": "",
          "type": "string"
        }
      ],
      "stateMutability": "view",
      "type": "function"
    },
    {
      "inputs": [
        {
          "internalType": "uint256",
          "name": "tokenId",
          "type": "uint256"
        }
      ],
      "name": "tokenURI",
      "outputs": [
        {
          "internalType": "string",
          "name": "",
          "type": "string"
        }
      ],
      "stateMutability": "view",
      "type": "function"
    },
    {
      "inputs": [
        {
          "internalType": "address",
          "name": "from",
          "type": "address"
        },
        {
          "internalType": "address",
          "name": "to",
          "type": "address"
        },
        {
          "internalType": "uint256",
          "name": "tokenId",
          "type": "uint256"
        }
      ],
      "name": "transferFrom",
      "outputs": [],
      "stateMutability": "nonpayable",
      "type": "function"
    },
    {
      "inputs": [
        {
          "internalType": "address",
          "name": "acc",
          "type": "address"
        },
        {
          "internalType": "bool",
          "name": "allow",
          "type": "bool"
        }
      ],
      "name": "change_admins",
      "outputs": [],
      "stateMutability": "nonpayable",
      "type": "function"
    },
    {
      "inputs": [
        {
          "internalType": "uint256",
          "name": "tokenId",
          "type": "uint256"
        },
        {
          "internalType": "string",
          "name": "_tokenURI",
          "type": "string"
        }
      ],
      "name": "mint",
      "outputs": [],
      "stateMutability": "nonpayable",
      "type": "function"
    }
  ],
  "bytecode": "0x60806040523480156200001157600080fd5b50604051620034d2380380620034d28339818101604052810190620000379190620004fa565b82828160009080519060200190620000519291906200016d565b5080600190805190602001906200006a9291906200016d565b5050506001600760003373ffffffffffffffffffffffffffffffffffffffff1673ffffffffffffffffffffffffffffffffffffffff16815260200190815260200160002060006101000a81548160ff02191690831515021790555060005b81518160ff1610156200016357600160076000848460ff1681518110620000f457620000f3620005b3565b5b602002602001015173ffffffffffffffffffffffffffffffffffffffff1673ffffffffffffffffffffffffffffffffffffffff16815260200190815260200160002060006101000a81548160ff02191690831515021790555080806200015a906200061e565b915050620000c8565b50505050620006b0565b8280546200017b906200067b565b90600052602060002090601f0160209004810192826200019f5760008555620001eb565b82601f10620001ba57805160ff1916838001178555620001eb565b82800160010185558215620001eb579182015b82811115620001ea578251825591602001919060010190620001cd565b5b509050620001fa9190620001fe565b5090565b5b8082111562000219576000816000905550600101620001ff565b5090565b6000604051905090565b600080fd5b600080fd5b600080fd5b600080fd5b6000601f19601f8301169050919050565b7f4e487b7100000000000000000000000000000000000000000000000000000000600052604160045260246000fd5b62000286826200023b565b810181811067ffffffffffffffff82111715620002a857620002a76200024c565b5b80604052505050565b6000620002bd6200021d565b9050620002cb82826200027b565b919050565b600067ffffffffffffffff821115620002ee57620002ed6200024c565b5b620002f9826200023b565b9050602081019050919050565b60005b838110156200032657808201518184015260208101905062000309565b8381111562000336576000848401525b50505050565b6000620003536200034d84620002d0565b620002b1565b90508281526020810184848401111562000372576200037162000236565b5b6200037f84828562000306565b509392505050565b600082601f8301126200039f576200039e62000231565b5b8151620003b18482602086016200033c565b91505092915050565b600067ffffffffffffffff821115620003d857620003d76200024c565b5b602082029050602081019050919050565b600080fd5b600073ffffffffffffffffffffffffffffffffffffffff82169050919050565b60006200041b82620003ee565b9050919050565b6200042d816200040e565b81146200043957600080fd5b50565b6000815190506200044d8162000422565b92915050565b60006200046a6200046484620003ba565b620002b1565b9050808382526020820190506020840283018581111562000490576200048f620003e9565b5b835b81811015620004bd5780620004a888826200043c565b84526020840193505060208101905062000492565b5050509392505050565b600082601f830112620004df57620004de62000231565b5b8151620004f184826020860162000453565b91505092915050565b60008060006060848603121562000516576200051562000227565b5b600084015167ffffffffffffffff8111156200053757620005366200022c565b5b620005458682870162000387565b935050602084015167ffffffffffffffff8111156200056957620005686200022c565b5b620005778682870162000387565b925050604084015167ffffffffffffffff8111156200059b576200059a6200022c565b5b620005a986828701620004c7565b9150509250925092565b7f4e487b7100000000000000000000000000000000000000000000000000000000600052603260045260246000fd5b7f4e487b7100000000000000000000000000000000000000000000000000000000600052601160045260246000fd5b600060ff82169050919050565b60006200062b8262000611565b915060ff8203620006415762000640620005e2565b5b600182019050919050565b7f4e487b7100000000000000000000000000000000000000000000000000000000600052602260045260246000fd5b600060028204905060018216806200069457607f821691505b602082108103620006aa57620006a96200064c565b5b50919050565b612e1280620006c06000396000f3fe608060405234801561001057600080fd5b50600436106101005760003560e01c806370a0823111610097578063b88d4fde11610066578063b88d4fde146102bd578063bbd24510146102d9578063c87b56dd146102f5578063e985e9c51461032557610100565b806370a082311461023757806377097fc81461026757806395d89b4114610283578063a22cb465146102a157610100565b806323b872dd116100d357806323b872dd1461019f57806342842e0e146101bb578063429b62e5146101d75780636352211e1461020757610100565b806301ffc9a71461010557806306fdde0314610135578063081812fc14610153578063095ea7b314610183575b600080fd5b61011f600480360381019061011a9190611dce565b610355565b60405161012c9190611e16565b60405180910390f35b61013d610437565b60405161014a9190611eca565b60405180910390f35b61016d60048036038101906101689190611f22565b6104c9565b60405161017a9190611f90565b60405180910390f35b61019d60048036038101906101989190611fd7565b61050f565b005b6101b960048036038101906101b49190612017565b610626565b005b6101d560048036038101906101d09190612017565b610686565b005b6101f160048036038101906101ec919061206a565b6106a6565b6040516101fe9190611e16565b60405180910390f35b610221600480360381019061021c9190611f22565b6106c6565b60405161022e9190611f90565b60405180910390f35b610251600480360381019061024c919061206a565b61074c565b60405161025e91906120a6565b60405180910390f35b610281600480360381019061027c91906121f6565b610803565b005b61028b610957565b6040516102989190611eca565b60405180910390f35b6102bb60048036038101906102b6919061227e565b6109e9565b005b6102d760048036038101906102d2919061235f565b6109ff565b005b6102f360048036038101906102ee919061227e565b610a61565b005b61030f600480360381019061030a9190611f22565b610b4f565b60405161031c9190611eca565b60405180910390f35b61033f600480360381019061033a91906123e2565b610c61565b60405161034c9190611e16565b60405180910390f35b60007f80ac58cd000000000000000000000000000000000000000000000000000000007bffffffffffffffffffffffffffffffffffffffffffffffffffffffff1916827bffffffffffffffffffffffffffffffffffffffffffffffffffffffff1916148061042057507f5b5e139f000000000000000000000000000000000000000000000000000000007bffffffffffffffffffffffffffffffffffffffffffffffffffffffff1916827bffffffffffffffffffffffffffffffffffffffffffffffffffffffff1916145b80610430575061042f82610cf5565b5b9050919050565b60606000805461044690612451565b80601f016020809104026020016040519081016040528092919081815260200182805461047290612451565b80156104bf5780601f10610494576101008083540402835291602001916104bf565b820191906000526020600020905b8154815290600101906020018083116104a257829003601f168201915b5050505050905090565b60006104d482610d5f565b6004600083815260200190815260200160002060009054906101000a900473ffffffffffffffffffffffffffffffffffffffff169050919050565b600061051a826106c6565b90508073ffffffffffffffffffffffffffffffffffffffff168373ffffffffffffffffffffffffffffffffffffffff160361058a576040517f08c379a0000000000000000000000000000000000000000000000000000000008152600401610581906124f4565b60405180910390fd5b8073ffffffffffffffffffffffffffffffffffffffff166105a9610daa565b73ffffffffffffffffffffffffffffffffffffffff1614806105d857506105d7816105d2610daa565b610c61565b5b610617576040517f08c379a000000000000000000000000000000000000000000000000000000000815260040161060e90612586565b60405180910390fd5b6106218383610db2565b505050565b610637610631610daa565b82610e6b565b610676576040517f08c379a000000000000000000000000000000000000000000000000000000000815260040161066d90612618565b60405180910390fd5b610681838383610f00565b505050565b6106a1838383604051806020016040528060008152506109ff565b505050565b60076020528060005260406000206000915054906101000a900460ff1681565b6000806106d2836111f9565b9050600073ffffffffffffffffffffffffffffffffffffffff168173ffffffffffffffffffffffffffffffffffffffff1603610743576040517f08c379a000000000000000000000000000000000000000000000000000000000815260040161073a90612684565b60405180910390fd5b80915050919050565b60008073ffffffffffffffffffffffffffffffffffffffff168273ffffffffffffffffffffffffffffffffffffffff16036107bc576040517f08c379a00000000000000000000000000000000000000000000000000000000081526004016107b390612716565b60405180910390fd5b600360008373ffffffffffffffffffffffffffffffffffffffff1673ffffffffffffffffffffffffffffffffffffffff168152602001908152602001600020549050919050565b60011515600760003373ffffffffffffffffffffffffffffffffffffffff1673ffffffffffffffffffffffffffffffffffffffff16815260200190815260200160002060009054906101000a900460ff16151514610896576040517f08c379a000000000000000000000000000000000000000000000000000000000815260040161088d90612782565b60405180910390fd5b600015156008826040516108aa91906127de565b908152602001604051809103902060009054906101000a900460ff16151514610908576040517f08c379a00000000000000000000000000000000000000000000000000000000081526004016108ff90612841565b60405180910390fd5b6109123383611236565b61091c8282611254565b600160088260405161092e91906127de565b908152602001604051809103902060006101000a81548160ff0219169083151502179055505050565b60606001805461096690612451565b80601f016020809104026020016040519081016040528092919081815260200182805461099290612451565b80156109df5780601f106109b4576101008083540402835291602001916109df565b820191906000526020600020905b8154815290600101906020018083116109c257829003601f168201915b5050505050905090565b6109fb6109f4610daa565b83836112c8565b5050565b610a10610a0a610daa565b83610e6b565b610a4f576040517f08c379a0000000000000000000000000000000000000000000000000000000008152600401610a4690612618565b60405180910390fd5b610a5b84848484611434565b50505050565b60011515600760003373ffffffffffffffffffffffffffffffffffffffff1673ffffffffffffffffffffffffffffffffffffffff16815260200190815260200160002060009054906101000a900460ff16151514610af4576040517f08c379a0000000000000000000000000000000000000000000000000000000008152600401610aeb90612782565b60405180910390fd5b80600760008473ffffffffffffffffffffffffffffffffffffffff1673ffffffffffffffffffffffffffffffffffffffff16815260200190815260200160002060006101000a81548160ff0219169083151502179055505050565b6060610b5a82610d5f565b6000600660008481526020019081526020016000208054610b7a90612451565b80601f0160208091040260200160405190810160405280929190818152602001828054610ba690612451565b8015610bf35780601f10610bc857610100808354040283529160200191610bf3565b820191906000526020600020905b815481529060010190602001808311610bd657829003601f168201915b505050505090506000610c04611490565b90506000815103610c19578192505050610c5c565b600082511115610c4e578082604051602001610c36929190612861565b60405160208183030381529060405292505050610c5c565b610c57846114a7565b925050505b919050565b6000600560008473ffffffffffffffffffffffffffffffffffffffff1673ffffffffffffffffffffffffffffffffffffffff16815260200190815260200160002060008373ffffffffffffffffffffffffffffffffffffffff1673ffffffffffffffffffffffffffffffffffffffff16815260200190815260200160002060009054906101000a900460ff16905092915050565b60007f01ffc9a7000000000000000000000000000000000000000000000000000000007bffffffffffffffffffffffffffffffffffffffffffffffffffffffff1916827bffffffffffffffffffffffffffffffffffffffffffffffffffffffff1916149050919050565b610d688161150f565b610da7576040517f08c379a0000000000000000000000000000000000000000000000000000000008152600401610d9e90612684565b60405180910390fd5b50565b600033905090565b816004600083815260200190815260200160002060006101000a81548173ffffffffffffffffffffffffffffffffffffffff021916908373ffffffffffffffffffffffffffffffffffffffff160217905550808273ffffffffffffffffffffffffffffffffffffffff16610e25836106c6565b73ffffffffffffffffffffffffffffffffffffffff167f8c5be1e5ebec7d5bd14f71427d1e84f3dd0314c0f7b2291e5b200ac8c7c3b92560405160405180910390a45050565b600080610e77836106c6565b90508073ffffffffffffffffffffffffffffffffffffffff168473ffffffffffffffffffffffffffffffffffffffff161480610eb95750610eb88185610c61565b5b80610ef757508373ffffffffffffffffffffffffffffffffffffffff16610edf846104c9565b73ffffffffffffffffffffffffffffffffffffffff16145b91505092915050565b8273ffffffffffffffffffffffffffffffffffffffff16610f20826106c6565b73ffffffffffffffffffffffffffffffffffffffff1614610f76576040517f08c379a0000000000000000000000000000000000000000000000000000000008152600401610f6d906128f7565b60405180910390fd5b600073ffffffffffffffffffffffffffffffffffffffff168273ffffffffffffffffffffffffffffffffffffffff1603610fe5576040517f08c379a0000000000000000000000000000000000000000000000000000000008152600401610fdc90612989565b60405180910390fd5b610ff28383836001611550565b8273ffffffffffffffffffffffffffffffffffffffff16611012826106c6565b73ffffffffffffffffffffffffffffffffffffffff1614611068576040517f08c379a000000000000000000000000000000000000000000000000000000000815260040161105f906128f7565b60405180910390fd5b6004600082815260200190815260200160002060006101000a81549073ffffffffffffffffffffffffffffffffffffffff02191690556001600360008573ffffffffffffffffffffffffffffffffffffffff1673ffffffffffffffffffffffffffffffffffffffff168152602001908152602001600020600082825403925050819055506001600360008473ffffffffffffffffffffffffffffffffffffffff1673ffffffffffffffffffffffffffffffffffffffff16815260200190815260200160002060008282540192505081905550816002600083815260200190815260200160002060006101000a81548173ffffffffffffffffffffffffffffffffffffffff021916908373ffffffffffffffffffffffffffffffffffffffff160217905550808273ffffffffffffffffffffffffffffffffffffffff168473ffffffffffffffffffffffffffffffffffffffff167fddf252ad1be2c89b69c2b068fc378daa952ba7f163c4a11628f55a4df523b3ef60405160405180910390a46111f48383836001611676565b505050565b60006002600083815260200190815260200160002060009054906101000a900473ffffffffffffffffffffffffffffffffffffffff169050919050565b61125082826040518060200160405280600081525061167c565b5050565b61125d8261150f565b61129c576040517f08c379a000000000000000000000000000000000000000000000000000000000815260040161129390612a1b565b60405180910390fd5b806006600084815260200190815260200160002090805190602001906112c3929190611cbf565b505050565b8173ffffffffffffffffffffffffffffffffffffffff168373ffffffffffffffffffffffffffffffffffffffff1603611336576040517f08c379a000000000000000000000000000000000000000000000000000000000815260040161132d90612a87565b60405180910390fd5b80600560008573ffffffffffffffffffffffffffffffffffffffff1673ffffffffffffffffffffffffffffffffffffffff16815260200190815260200160002060008473ffffffffffffffffffffffffffffffffffffffff1673ffffffffffffffffffffffffffffffffffffffff16815260200190815260200160002060006101000a81548160ff0219169083151502179055508173ffffffffffffffffffffffffffffffffffffffff168373ffffffffffffffffffffffffffffffffffffffff167f17307eab39ab6107e8899845ad3d59bd9653f200f220920489ca2b5937696c31836040516114279190611e16565b60405180910390a3505050565b61143f848484610f00565b61144b848484846116d7565b61148a576040517f08c379a000000000000000000000000000000000000000000000000000000000815260040161148190612b19565b60405180910390fd5b50505050565b606060405180602001604052806000815250905090565b60606114b282610d5f565b60006114bc611490565b905060008151116114dc5760405180602001604052806000815250611507565b806114e68461185e565b6040516020016114f7929190612861565b6040516020818303038152906040525b915050919050565b60008073ffffffffffffffffffffffffffffffffffffffff16611531836111f9565b73ffffffffffffffffffffffffffffffffffffffff1614159050919050565b600181111561167057600073ffffffffffffffffffffffffffffffffffffffff168473ffffffffffffffffffffffffffffffffffffffff16146115e45780600360008673ffffffffffffffffffffffffffffffffffffffff1673ffffffffffffffffffffffffffffffffffffffff16815260200190815260200160002060008282546115dc9190612b68565b925050819055505b600073ffffffffffffffffffffffffffffffffffffffff168373ffffffffffffffffffffffffffffffffffffffff161461166f5780600360008573ffffffffffffffffffffffffffffffffffffffff1673ffffffffffffffffffffffffffffffffffffffff16815260200190815260200160002060008282546116679190612b9c565b925050819055505b5b50505050565b50505050565b611686838361192c565b61169360008484846116d7565b6116d2576040517f08c379a00000000000000000000000000000000000000000000000000000000081526004016116c990612b19565b60405180910390fd5b505050565b60006116f88473ffffffffffffffffffffffffffffffffffffffff16611b49565b15611851578373ffffffffffffffffffffffffffffffffffffffff1663150b7a02611721610daa565b8786866040518563ffffffff1660e01b81526004016117439493929190612c47565b6020604051808303816000875af192505050801561177f57506040513d601f19601f8201168201806040525081019061177c9190612ca8565b60015b611801573d80600081146117af576040519150601f19603f3d011682016040523d82523d6000602084013e6117b4565b606091505b5060008151036117f9576040517f08c379a00000000000000000000000000000000000000000000000000000000081526004016117f090612b19565b60405180910390fd5b805181602001fd5b63150b7a0260e01b7bffffffffffffffffffffffffffffffffffffffffffffffffffffffff1916817bffffffffffffffffffffffffffffffffffffffffffffffffffffffff191614915050611856565b600190505b949350505050565b60606000600161186d84611b6c565b01905060008167ffffffffffffffff81111561188c5761188b6120cb565b5b6040519080825280601f01601f1916602001820160405280156118be5781602001600182028036833780820191505090505b509050600082602001820190505b600115611921578080600190039150507f3031323334353637383961626364656600000000000000000000000000000000600a86061a8153600a858161191557611914612cd5565b5b049450600085036118cc575b819350505050919050565b600073ffffffffffffffffffffffffffffffffffffffff168273ffffffffffffffffffffffffffffffffffffffff160361199b576040517f08c379a000000000000000000000000000000000000000000000000000000000815260040161199290612d50565b60405180910390fd5b6119a48161150f565b156119e4576040517f08c379a00000000000000000000000000000000000000000000000000000000081526004016119db90612dbc565b60405180910390fd5b6119f2600083836001611550565b6119fb8161150f565b15611a3b576040517f08c379a0000000000000000000000000000000000000000000000000000000008152600401611a3290612dbc565b60405180910390fd5b6001600360008473ffffffffffffffffffffffffffffffffffffffff1673ffffffffffffffffffffffffffffffffffffffff16815260200190815260200160002060008282540192505081905550816002600083815260200190815260200160002060006101000a81548173ffffffffffffffffffffffffffffffffffffffff021916908373ffffffffffffffffffffffffffffffffffffffff160217905550808273ffffffffffffffffffffffffffffffffffffffff16600073ffffffffffffffffffffffffffffffffffffffff167fddf252ad1be2c89b69c2b068fc378daa952ba7f163c4a11628f55a4df523b3ef60405160405180910390a4611b45600083836001611676565b5050565b6000808273ffffffffffffffffffffffffffffffffffffffff163b119050919050565b600080600090507a184f03e93ff9f4daa797ed6e38ed64bf6a1f0100000000000000008310611bca577a184f03e93ff9f4daa797ed6e38ed64bf6a1f0100000000000000008381611bc057611bbf612cd5565b5b0492506040810190505b6d04ee2d6d415b85acef81000000008310611c07576d04ee2d6d415b85acef81000000008381611bfd57611bfc612cd5565b5b0492506020810190505b662386f26fc100008310611c3657662386f26fc100008381611c2c57611c2b612cd5565b5b0492506010810190505b6305f5e1008310611c5f576305f5e1008381611c5557611c54612cd5565b5b0492506008810190505b6127108310611c84576127108381611c7a57611c79612cd5565b5b0492506004810190505b60648310611ca75760648381611c9d57611c9c612cd5565b5b0492506002810190505b600a8310611cb6576001810190505b80915050919050565b828054611ccb90612451565b90600052602060002090601f016020900481019282611ced5760008555611d34565b82601f10611d0657805160ff1916838001178555611d34565b82800160010185558215611d34579182015b82811115611d33578251825591602001919060010190611d18565b5b509050611d419190611d45565b5090565b5b80821115611d5e576000816000905550600101611d46565b5090565b6000604051905090565b600080fd5b600080fd5b60007fffffffff0000000000000000000000000000000000000000000000000000000082169050919050565b611dab81611d76565b8114611db657600080fd5b50565b600081359050611dc881611da2565b92915050565b600060208284031215611de457611de3611d6c565b5b6000611df284828501611db9565b91505092915050565b60008115159050919050565b611e1081611dfb565b82525050565b6000602082019050611e2b6000830184611e07565b92915050565b600081519050919050565b600082825260208201905092915050565b60005b83811015611e6b578082015181840152602081019050611e50565b83811115611e7a576000848401525b50505050565b6000601f19601f8301169050919050565b6000611e9c82611e31565b611ea68185611e3c565b9350611eb6818560208601611e4d565b611ebf81611e80565b840191505092915050565b60006020820190508181036000830152611ee48184611e91565b905092915050565b6000819050919050565b611eff81611eec565b8114611f0a57600080fd5b50565b600081359050611f1c81611ef6565b92915050565b600060208284031215611f3857611f37611d6c565b5b6000611f4684828501611f0d565b91505092915050565b600073ffffffffffffffffffffffffffffffffffffffff82169050919050565b6000611f7a82611f4f565b9050919050565b611f8a81611f6f565b82525050565b6000602082019050611fa56000830184611f81565b92915050565b611fb481611f6f565b8114611fbf57600080fd5b50565b600081359050611fd181611fab565b92915050565b60008060408385031215611fee57611fed611d6c565b5b6000611ffc85828601611fc2565b925050602061200d85828601611f0d565b9150509250929050565b6000806000606084860312156120305761202f611d6c565b5b600061203e86828701611fc2565b935050602061204f86828701611fc2565b925050604061206086828701611f0d565b9150509250925092565b6000602082840312156120805761207f611d6c565b5b600061208e84828501611fc2565b91505092915050565b6120a081611eec565b82525050565b60006020820190506120bb6000830184612097565b92915050565b600080fd5b600080fd5b7f4e487b7100000000000000000000000000000000000000000000000000000000600052604160045260246000fd5b61210382611e80565b810181811067ffffffffffffffff82111715612122576121216120cb565b5b80604052505050565b6000612135611d62565b905061214182826120fa565b919050565b600067ffffffffffffffff821115612161576121606120cb565b5b61216a82611e80565b9050602081019050919050565b82818337600083830152505050565b600061219961219484612146565b61212b565b9050828152602081018484840111156121b5576121b46120c6565b5b6121c0848285612177565b509392505050565b600082601f8301126121dd576121dc6120c1565b5b81356121ed848260208601612186565b91505092915050565b6000806040838503121561220d5761220c611d6c565b5b600061221b85828601611f0d565b925050602083013567ffffffffffffffff81111561223c5761223b611d71565b5b612248858286016121c8565b9150509250929050565b61225b81611dfb565b811461226657600080fd5b50565b60008135905061227881612252565b92915050565b6000806040838503121561229557612294611d6c565b5b60006122a385828601611fc2565b92505060206122b485828601612269565b9150509250929050565b600067ffffffffffffffff8211156122d9576122d86120cb565b5b6122e282611e80565b9050602081019050919050565b60006123026122fd846122be565b61212b565b90508281526020810184848401111561231e5761231d6120c6565b5b612329848285612177565b509392505050565b600082601f830112612346576123456120c1565b5b81356123568482602086016122ef565b91505092915050565b6000806000806080858703121561237957612378611d6c565b5b600061238787828801611fc2565b945050602061239887828801611fc2565b93505060406123a987828801611f0d565b925050606085013567ffffffffffffffff8111156123ca576123c9611d71565b5b6123d687828801612331565b91505092959194509250565b600080604083850312156123f9576123f8611d6c565b5b600061240785828601611fc2565b925050602061241885828601611fc2565b9150509250929050565b7f4e487b7100000000000000000000000000000000000000000000000000000000600052602260045260246000fd5b6000600282049050600182168061246957607f821691505b60208210810361247c5761247b612422565b5b50919050565b7f4552433732313a20617070726f76616c20746f2063757272656e74206f776e6560008201527f7200000000000000000000000000000000000000000000000000000000000000602082015250565b60006124de602183611e3c565b91506124e982612482565b604082019050919050565b6000602082019050818103600083015261250d816124d1565b9050919050565b7f4552433732313a20617070726f76652063616c6c6572206973206e6f7420746f60008201527f6b656e206f776e6572206f7220617070726f76656420666f7220616c6c000000602082015250565b6000612570603d83611e3c565b915061257b82612514565b604082019050919050565b6000602082019050818103600083015261259f81612563565b9050919050565b7f4552433732313a2063616c6c6572206973206e6f7420746f6b656e206f776e6560008201527f72206f7220617070726f76656400000000000000000000000000000000000000602082015250565b6000612602602d83611e3c565b915061260d826125a6565b604082019050919050565b60006020820190508181036000830152612631816125f5565b9050919050565b7f4552433732313a20696e76616c696420746f6b656e2049440000000000000000600082015250565b600061266e601883611e3c565b915061267982612638565b602082019050919050565b6000602082019050818103600083015261269d81612661565b9050919050565b7f4552433732313a2061646472657373207a65726f206973206e6f74206120766160008201527f6c6964206f776e65720000000000000000000000000000000000000000000000602082015250565b6000612700602983611e3c565b915061270b826126a4565b604082019050919050565b6000602082019050818103600083015261272f816126f3565b9050919050565b7f4e65656420746f20626520616e2061646d696e00000000000000000000000000600082015250565b600061276c601383611e3c565b915061277782612736565b602082019050919050565b6000602082019050818103600083015261279b8161275f565b9050919050565b600081905092915050565b60006127b882611e31565b6127c281856127a2565b93506127d2818560208601611e4d565b80840191505092915050565b60006127ea82846127ad565b915081905092915050565b7f4d696e7465642055524900000000000000000000000000000000000000000000600082015250565b600061282b600a83611e3c565b9150612836826127f5565b602082019050919050565b6000602082019050818103600083015261285a8161281e565b9050919050565b600061286d82856127ad565b915061287982846127ad565b91508190509392505050565b7f4552433732313a207472616e736665722066726f6d20696e636f72726563742060008201527f6f776e6572000000000000000000000000000000000000000000000000000000602082015250565b60006128e1602583611e3c565b91506128ec82612885565b604082019050919050565b60006020820190508181036000830152612910816128d4565b9050919050565b7f4552433732313a207472616e7366657220746f20746865207a65726f2061646460008201527f7265737300000000000000000000000000000000000000000000000000000000602082015250565b6000612973602483611e3c565b915061297e82612917565b604082019050919050565b600060208201905081810360008301526129a281612966565b9050919050565b7f45524337323155524953746f726167653a2055524920736574206f66206e6f6e60008201527f6578697374656e7420746f6b656e000000000000000000000000000000000000602082015250565b6000612a05602e83611e3c565b9150612a10826129a9565b604082019050919050565b60006020820190508181036000830152612a34816129f8565b9050919050565b7f4552433732313a20617070726f766520746f2063616c6c657200000000000000600082015250565b6000612a71601983611e3c565b9150612a7c82612a3b565b602082019050919050565b60006020820190508181036000830152612aa081612a64565b9050919050565b7f4552433732313a207472616e7366657220746f206e6f6e20455243373231526560008201527f63656976657220696d706c656d656e7465720000000000000000000000000000602082015250565b6000612b03603283611e3c565b9150612b0e82612aa7565b604082019050919050565b60006020820190508181036000830152612b3281612af6565b9050919050565b7f4e487b7100000000000000000000000000000000000000000000000000000000600052601160045260246000fd5b6000612b7382611eec565b9150612b7e83611eec565b925082821015612b9157612b90612b39565b5b828203905092915050565b6000612ba782611eec565b9150612bb283611eec565b9250827fffffffffffffffffffffffffffffffffffffffffffffffffffffffffffffffff03821115612be757612be6612b39565b5b828201905092915050565b600081519050919050565b600082825260208201905092915050565b6000612c1982612bf2565b612c238185612bfd565b9350612c33818560208601611e4d565b612c3c81611e80565b840191505092915050565b6000608082019050612c5c6000830187611f81565b612c696020830186611f81565b612c766040830185612097565b8181036060830152612c888184612c0e565b905095945050505050565b600081519050612ca281611da2565b92915050565b600060208284031215612cbe57612cbd611d6c565b5b6000612ccc84828501612c93565b91505092915050565b7f4e487b7100000000000000000000000000000000000000000000000000000000600052601260045260246000fd5b7f4552433732313a206d696e7420746f20746865207a65726f2061646472657373600082015250565b6000612d3a602083611e3c565b9150612d4582612d04565b602082019050919050565b60006020820190508181036000830152612d6981612d2d565b9050919050565b7f4552433732313a20746f6b656e20616c7265616479206d696e74656400000000600082015250565b6000612da6601c83611e3c565b9150612db182612d70565b602082019050919050565b60006020820190508181036000830152612dd581612d99565b905091905056fea2646970667358221220206fdf581e0fea98d0d8fc326f84398ca949d9b546458080f82f4684382468da64736f6c634300080d0033",
  "immutableReferences": {},
  "source": "// SPDX-License-Identifier: MIT \r\n\r\npragma solidity >=0.7.0 <0.9.0;\r\n\r\nimport \"@openzeppelin/contracts/token/ERC721/extensions/ERC721URIStorage.sol\";\r\n\r\n\r\n/**\r\n * @title SampleERC721\r\n * @dev Create a sample ERC721 standard token\r\n */\r\ncontract ERC721_v2 is ERC721URIStorage {\r\n    mapping (address => bool) public admins; \r\n    mapping (string => bool) private _usedURI;\r\n\r\n\r\n    constructor(string memory tokenName, string memory tokenSymbol, address[] memory _admins) ERC721(tokenName, tokenSymbol) {\r\n        admins[msg.sender] = true;\r\n        for (uint8 i = 0; i < _admins.length; i++){\r\n            admins[_admins[i]] = true;\r\n        }\r\n    }\r\n\r\n    modifier only_admin(){\r\n        require(admins[msg.sender] == true, \"Need to be an admin\");\r\n        _;\r\n    }\r\n\r\n    function change_admins(address acc, bool allow) public only_admin{\r\n        admins[acc] = allow;\r\n    }\r\n\r\n\r\n    function mint(uint256 tokenId, string memory _tokenURI) public only_admin {\r\n        require(_usedURI[_tokenURI] == false, \"Minted URI\");\r\n        _safeMint(msg.sender, tokenId);\r\n        _setTokenURI(tokenId, _tokenURI);\r\n        _usedURI[_tokenURI] = true;\r\n    }\r\n\r\n}",
  "sourcePath": "C:\\Users\\khang\\OneDrive\\Desktop\\Blockchain\\bridge-react\\Bridge_reduced_admin\\truffle-test\\contracts\\ERC721_v2.sol",
  "compiler": {
    "name": "solc",
    "version": "0.8.13+commit.abaa5c0e.Emscripten.clang"
  },
  "schemaVersion": "3.4.10",
  "updatedAt": "2022-11-24T06:36:41.229Z",
  "devdoc": {
    "details": "Create a sample ERC721 standard token",
    "kind": "dev",
    "methods": {
      "approve(address,uint256)": {
        "details": "See {IERC721-approve}."
      },
      "balanceOf(address)": {
        "details": "See {IERC721-balanceOf}."
      },
      "getApproved(uint256)": {
        "details": "See {IERC721-getApproved}."
      },
      "isApprovedForAll(address,address)": {
        "details": "See {IERC721-isApprovedForAll}."
      },
      "name()": {
        "details": "See {IERC721Metadata-name}."
      },
      "ownerOf(uint256)": {
        "details": "See {IERC721-ownerOf}."
      },
      "safeTransferFrom(address,address,uint256)": {
        "details": "See {IERC721-safeTransferFrom}."
      },
      "safeTransferFrom(address,address,uint256,bytes)": {
        "details": "See {IERC721-safeTransferFrom}."
      },
      "setApprovalForAll(address,bool)": {
        "details": "See {IERC721-setApprovalForAll}."
      },
      "supportsInterface(bytes4)": {
        "details": "See {IERC165-supportsInterface}."
      },
      "symbol()": {
        "details": "See {IERC721Metadata-symbol}."
      },
      "tokenURI(uint256)": {
        "details": "See {IERC721Metadata-tokenURI}."
      },
      "transferFrom(address,address,uint256)": {
        "details": "See {IERC721-transferFrom}."
      }
    },
    "title": "SampleERC721",
    "version": 1
  },
  "userdoc": {
    "kind": "user",
    "methods": {},
    "version": 1
  }
}